:1000000035C7000050C700004DC700004BC70000B7
:1000100049C7000047C7000045C7000043C70000AC
:1000200041C700003FC700000C94261D3BC70000DD
:1000300039C7000037C7000035C7000033C70000CC
:1000400031C700002FC700002DC700002BC70000DC
:1000500029C7000027C7000025C7000023C70000EC
:1000600021C700001FC700001DC700001BC70000FC
:1000700019C700000C949B0815C7000013C70000A7
:1000800011C700000FC700000DC700000BC700001C
:1000900009C7000007C7000005C7000003C700002C
:1000A00001C70000FFC60000FDC6000005010904ED
:1000B000A10185010901A1000930093109321600A9
:1000C000FE26FF01350046FF0395037510810209E6
:1000D000351500253F3500452E95017506810275C1
:1000E0000295018101650009330934150025FF459A
:1000F000FF7508750895028102C009361580257FB5
:1001000045FF750895018102050209BB15C0253F11
:10011000457F750895018102050919012908150017
:1001200025014501750195088102190929107501FC
:100130009508810205010939950175041500250707
:10014000463B0165148142750495018101550065A6
:1001500000050F0992A1028502099F09A009A409BF
:10016000A509A615002501350045017501950581F4
:100170000295038103099415002501350045017599
:1001800001950181020922150125283501452875AF
:100190000795018102C00921A102850109221501EB
:1001A0002528350145287508950191020925A102E8
:1001B0000926092709300931093209330934094070
:1001C0000941094209430928250C15013501450C4F
:1001D000750895019100C009500954095115002670
:1001E000FF7F350046FF7F66031055FD75109503B0
:1001F000910255006600000952150026FF003500E7
:1002000046102775089501910209531501250835F7
:100210000145087508950191020955A102050109DA
:1002200030093115002501750195029102C0050FB5
:10023000095695019102950591030957A1020B01F9
:10024000000A000B02000A0066140055FE15002685
:10025000B400350047A08C000066000075089502C8
:1002600091025500660000C0050F09A766031055EE
:10027000FD150026FF7F350046FF7F751095019123
:10028000026600005500C0050F095AA10285020947
:100290002215012528350145287508950191020987
:1002A0005B095D150026FF00350046102795029179
:1002B00002095C095E66031055FD26FF7F46FF7F3D
:1002C0007510910245006600005500C0095FA1024B
:1002D0008503092215012528350145287508950152
:1002E000910209231500250135004501750495018A
:1002F00091020958A1020B01000A000B02000A003A
:10030000750295029102C01580257F36F0D84610FF
:1003100027096075089501910236F0D84610270923
:1003200061096295029102150026FF003500461012
:10033000270963096475089502910209654610272B
:1003400095019102C0096EA10285040922150125BB
:100350002835014528750895019102097015002678
:10036000FF003500461027750895019102096F15A9
:1003700080257F36F0D846102795019102097166D5
:10038000140055FE150026FF00350047A08C000024
:100390009102097226FF7F46FF7F66031055FD75A7
:1003A00010950191026600005500C00973A10285F5
:1003B0000509221501252835014528750895019163
:1003C0000209701601FF26FF0036F0D84610277587
:1003D0001095019102C00974A10285060922150138
:1003E000252835014528750895019102097509767A
:1003F0001580257F36F0D8461027750895029102A2
:10040000C00968A102850709221501252835014583
:1004100028750895019102096C15002610273500F2
:1004200046102775109501910209691581257F35C0
:100430000046FF007508950C920201C00966A102F2
:1004400085080501093009311581257F350046FFF2
:1004500000750895029102C0050F0977A102850A6F
:1004600009221501252835014528750895019102B5
:100470000978A1020979097A097B15012503750814
:1004800095019100C0097C150026FF00350046FF4C
:10049000009102C00990A102850B092225281501AF
:1004A00035014528750895019102C00996A102857C
:1004B0000C099709980999099A099B099C15012526
:1004C00006750895019100C0097DA102850D097E80
:1004D000150026FF0035004610277508950191028A
:1004E000C0096BA102850E09221501252835014599
:1004F00028750895019102096D150026FF00350049
:1005000046FF00750895019102095166031055FDDB
:10051000150026FF7F350046FF7F7510950191027B
:100520005500660000C009ABA10285050925A1029E
:1005300009260927093009310932093309340940EC
:100540000941094209430928250C15013501450CCB
:1005500075089501B100C00501093B150026FF0192
:10056000350046FF01750A9501B1027506B101C05B
:10057000050F0989A10285060922252815013501E3
:10058000452875089501B102098BA102098C098DD6
:10059000098E250315013501450375089501B10044
:1005A000C009AC150027FFFF0000350047FFFF0022
:1005B0000075109501B100C0097FA102850709806F
:1005C000751095011500350027FFFF000047FFFF5C
:1005D0000000B102098326FF0046FF00750895015F
:1005E000B10209A909AA7501950215002501350076
:1005F0004501B10275069501B103C0C005010904AA
:10060000A10185010904A100093009310932160050
:100610000026FF03350046FF03950375108102098C
:10062000351500253F3500452E950175068102756B
:100630000295018101650009330934150025FF4544
:10064000FF7508750895028102C009361580257F5F
:1006500045FF750895018102050209BB1500253F7C
:10066000453F750895018102050919012908150002
:1006700025014501750195088102190929107501A7
:1006800095088102050109399501750415002507B2
:10069000463B016514814275049501810155006551
:1006A00000050F0992A1028502099F09A009A4096A
:1006B000A509A6150025013500450175019505819F
:1006C0000295038103099415002501350045017544
:1006D000019501810209221501252835014528755A
:1006E0000795018102C00921A10285010922150196
:1006F0002528350145287508950191020925A10293
:10070000092609270930093109320933093409401A
:100710000941094209430928250C15013501450CF9
:10072000750895019100C00950095409511500261A
:10073000FF7F350046FF7F66031055FD751095035A
:10074000910255006600000952150026FF00350091
:1007500046102775089501910209531501250835A2
:100760000145087508950191020955A10205010985
:1007700030093115002501750195029102C0050F60
:10078000095695019102950591030957A1020B01A4
:10079000000A000B02000A0066140055FE15002630
:1007A000B400350047A08C00006600007508950273
:1007B00091025500660000C0050F09A76603105599
:1007C000FD150026FF7F350046FF7F7510950191CE
:1007D000026600005500C0050F095AA102850209F2
:1007E0002215012528350145287508950191020932
:1007F0005B095D150026FF00350046102795029124
:1008000002095C095E66031055FD26FF7F46FF7FE7
:100810007510910245006600005500C0095FA102F5
:1008200085030922150125283501452875089501FC
:100830009102092315002501350045017504950134
:1008400091020958A1020B01000A000B02000A00E4
:10085000750295029102C01580257F36F0D84610AA
:1008600027096075089501910236F0D846102709CE
:1008700061096295029102150026FF0035004610BD
:1008800027096309647508950291020965461027D6
:1008900095019102C0096EA1028504092215012566
:1008A0002835014528750895019102097015002623
:1008B000FF003500461027750895019102096F1554
:1008C00080257F36F0D84610279501910209716680
:1008D000140055FE150026FF00350047A08C0000CF
:1008E0009102097226FF7F46FF7F66031055FD7552
:1008F00010950191026600005500C00973A10285A0
:10090000050922150125283501452875089501910D
:100910000209701601FF26FF0036F0D84610277531
:100920001095019102C00974A102850609221501E2
:100930002528350145287508950191020975097624
:100940001580257F36F0D84610277508950291024C
:10095000C00968A10285070922150125283501452E
:1009600028750895019102096C150026102735009D
:1009700046102775109501910209691581257F356B
:100980000046FF007508950C920201C00966A1029D
:1009900085080501093009311581257F350046FF9D
:1009A00000750895029102C0050F0977A102850A1A
:1009B0000922150125283501452875089501910260
:1009C0000978A1020979097A097B150125037508BF
:1009D00095019100C0097C150026FF00350046FFF7
:1009E000009102C00990A102850B0922252815015A
:1009F00035014528750895019102C00996A1028527
:100A00000C099709980999099A099B099C150125D0
:100A100006750895019100C0097DA102850D097E2A
:100A2000150026FF00350046102775089501910234
:100A3000C0096BA102850E09221501252835014543
:100A400028750895019102096D150026FF003500F3
:100A500046FF00750895019102095166031055FD86
:100A6000150026FF7F350046FF7F75109501910226
:100A70005500660000C009ABA10285050925A10249
:100A80000926092709300931093209330934094097
:100A90000941094209430928250C15013501450C76
:100AA00075089501B100C00501093B150026FF013D
:100AB000350046FF01750A9501B1027506B101C006
:100AC000050F0989A102850609222528150135018E
:100AD000452875089501B102098BA102098C098D81
:100AE000098E250315013501450375089501B100EF
:100AF000C009AC150027FFFF0000350047FFFF00CD
:100B00000075109501B100C0097FA1028507098019
:100B1000751095011500350027FFFF000047FFFF06
:100B20000000B102098326FF0046FF007508950109
:100B3000B10209A909AA7501950215002501350020
:100B40004501B10275069501B103C0C01201100143
:100B500000000008EB035620010001020001120111
:100B6000100100000008EB034E200100010200010B
:100B700009022900010100C032090400000203003B
:100B80000000092111010001225005070502034060
:100B90000001070581034000010403090418034410
:100BA00000650061006E002000430061006D00657B
:100BB0000072006100000026034C00550046004111
:100BC0000020004A006F0079007300740069006320
:100BD000006B002000770046004600420000002025
:100BE000034C005500460041002000570068006596
:100BF0000065006C002000770046004600420000BF
:100C0000004374726C5265712876616C2C6964784B
:100C10002C726571293A0053746F70206D616E7586
:100C2000616C3A002028456E61626C6564290A0097
:100C3000202844697361626C6564290A0020467249
:100C40006565002053656E740020506C6179696E93
:100C5000670A0020416C6C6F636174656400203D1D
:100C60003E204D6964693A004465766963652047B2
:100C700061696E3A20004F746865722000426C6FA3
:100C8000636B20467265653A200020556E6B6E6F6F
:100C9000776E206F7065726174696F6E0020537497
:100CA0006F7000205374617274536F6C6F00205327
:100CB0007461727400456666656374204F70657276
:100CC0006174696F6E3A004765745265706F727433
:100CD0002050494420506F6F6C20466561747572D6
:100CE00065002020627574746F6E3D00202072656F
:100CF000706561743D002020593D002020583D0062
:100D00002020647572613D0020206761696E3D009E
:100D10002020747970653D002020696420203D000A
:100D2000536574204566666563743A002C207374BD
:100D3000617475733D00437265617465204E65771B
:100D400020456666656374203D3E2069643D00551C
:100D5000736220203D3E002020656E6420203D000F
:100D6000202073746172743D00202069643D00533B
:100D700065742052616D7020466F7263653A002081
:100D8000206D61676E69747564653D00202069643B
:100D90003D0053657420436F6E7374616E7420461A
:100DA0006F7263653A002020706572696F6420205D
:100DB000203D0020207068617365202020203D00C8
:100DC00020206F66667365742020203D0020206D12
:100DD00061676E69747564653D00202069643D003B
:100DE00053657420506572696F6469633A0020200E
:100DF000636F6566662B3D0020206F6666736574C1
:100E00003D002020626C6F636B203D0020206964F0
:100E10002020203D0053657420436F6E646974691F
:100E20006F6E3A0020206661646554696D6520200C
:100E30003D00202061747461636B54696D653D00F1
:100E400020206661646520203D002020617474616B
:100E5000636B3D0020206964202020203D00536505
:100E60007420456E76656C6F70653A0011241FBE64
:100E7000CFEFDAE0DEBFCDBF12E0A0E0B1E0ECEAF8
:100E8000F2E402C005900D92A03CB107D9F716E03C
:100E9000A0ECB2E001C01D92AB37B107E1F7B8D4C6
:100EA0000C945421ADC85F935FB75F9357EE56BD66
:100EB0004F93AF93BF93B6E0A0913F065091400689
:100EC000452F53955093400653B15295507E47702D
:100ED00069F04530B9F0423069F04330F1F0463006
:100EE000E9F04130E1F04430D9F01BC052955695FD
:100EF0005E931AC0550F4C91542B5C935527551F88
:100F00005E9312C057FB550F550F4C91542B5C93B9
:100F10005527551F51F95E9307C05695569556951E
:100F200056954C91542B5C93A0933F06BF91AF9183
:100F30004F915F915FBF5F911895DC0154E0A50F61
:100F40005C91509550FB5095A1503C91369557952A
:100F50005093660642E0340F33705C91A1504C917F
:100F6000469557955C7F532B5093670638E0430FA7
:100F70004F70A2505C91550F550F5051507F542B1C
:100F8000509368063C9142E0340F3370A3954C9126
:100F9000407F342B3295330F330F54E0A50F5C9113
:100FA000509556953795569537953093690656F96D
:100FB000A3504C9145FB57F950936A06A1505C91A0
:100FC00038E0530F5F70440F551F440F551F509367
:100FD0006B060895DC0145E0A40F5C91A395A395F1
:100FE0003C913873330F3295550F369557954EEF28
:100FF000340F3370509366064C914770A3505C9148
:10100000550F469557952EEF420F4370550F441FCD
:10101000550F441F532B50936706342FA2505C91F9
:10102000A3954C914871550F440F4295469557959D
:10103000409540FB5295452F407F432B40936806D7
:101040005F7054F9352FA3505C91507747E0A40F9F
:101050004C9146FB57F9505157FB550F532B50936A
:101060006906332730F9AA955C91A3504C9146FB51
:1010700057F950954427550F441F532B50936A0638
:10108000342FA2505C91A395A3954C914770550FB6
:10109000469557952EEF420F437057FB550F532B34
:1010A00050936B06440F40F940936C060895482F07
:1010B000362F8827F894E09AE89A2227189B2FEF7A
:1010C00051E053BD5CE956BDA89A209340065FE30A
:1010D00050933F0678942498259850E05A95F1F75C
:1010E000249A259A50914006521719F4A89BFACFDA
:1010F000089550914006521B250F231728F44423CE
:101100008AF7450F7AF3E7CF83950895D0DF8823D8
:1011100071F050914006563151F4F8945527509390
:10112000400650913F06539550933F06789408959A
:1011300081E090E008951F920F920FB60F92112454
:101140008F9381E08093C0028F910F900FBE0F901C
:101150001F901895CF93DF93EB0183E085BD0E942C
:10116000181B8091C0028823C9F11092C00280919F
:10117000C102813069F0813028F0843089F08530F7
:10118000C9F414C0809179008093C20281E005C047
:10119000809179008093C30284E08093C1020CC0E7
:1011A000809179008093C40285E0F7CF8091790027
:1011B0008093C5021092C10280917C00887F809349
:1011C0007C0090917C008091C1028770892B809374
:1011D0007C0080917A00806480937A0081E088832B
:1011E00080916D068430C1F52091680630E0220FB1
:1011F000331F220F331F30708091690682958695C8
:101200008695837090E0282B392B8FEF90E028276C
:1012100039273D872C8780916A0690E08370907013
:10122000982F882720916B06820F911D9A838983BE
:1012300080916A0690E08C7F9070880F991F880FCC
:10124000991F9C838B838091690680958F738B8710
:101250008FEF8E871F825CC08091670690E083705D
:101260009070382F222780916606280F311D3A830F
:1012700029838091670681FF03C03C6F3A832983ED
:1012800080916806282F30E02F70307046E0220FE2
:10129000331F4A95E1F78091670686958695280F5A
:1012A000311D3C832B838091680683FF03C03C6F14
:1012B0003C832B83209169062295269526952370E1
:1012C00080916A0690E08F779070880F991F880F41
:1012D000991F820F911D9D878C878091680682954A
:1012E0008F708E87809169068F7380528F83909163
:1012F0006B069F73990F80916A06881F8827881F45
:10130000980F9B8780916B0685FF02C0906C9B872E
:101310001E821D828091C5022091C40290E0821B32
:10132000910962E070E00E943A2160586A878091DA
:10133000C30288878091C202898781E090E0DF91B3
:10134000CF9108950E944F1B86E08093410683E071
:101350008093810085E085BD26E02150822F90E0BA
:10136000FC01EA59F94FE081DC01AD5BB94F8C918A
:101370008E13EC93222389F788EE93E07DD312D469
:1013800010BA80917A00876080937A0080917C0007
:10139000806480937C0080917C00806280937C00DC
:1013A00080917A00806880937A0080917A008860CA
:1013B00080937A0080917A00806480937A00089507
:1013C000CF92DF92EF92FF920F931F93DF93CF9311
:1013D00000D0CDB7DEB7282F6A836A01933031F190
:1013E000943030F4913091F0923009F054C007C03D
:1013F000913209F439C0923209F04DC03CC060E727
:10140000E62E6BE0F62E09E210E049C080916D06F1
:10141000843029F05CE4E52E5BE0F52E04C04EE557
:10142000E42E4BE0F42E02E110E039C0813049F0A7
:10143000813018F0823079F50BC0E9E9FBE0849146
:1014400003C0EDE9FBE08491082F10E07F0127C085
:1014500080916D06843021F4EFEDFBE08491F4CFB0
:10146000E7EBFBE08491F0CF32E8E32E3BE0F32E94
:1014700009E010E014C080916D06843029F09CEAE8
:10148000E92E90E0F92E04C08CEFE82E85E0F82ECE
:1014900000E515E004C0EE24FF2400E010E02983FD
:1014A000CE01019661E070E00E94C11BCE01029660
:1014B00061E070E00E94CC1BF601F182E082C8017D
:1014C0000F900F90CF91DF911F910F91FF90EF90B0
:1014D000DF90CF9008955E9A08955E9808956F9278
:1014E0007F928F929F92AF92BF92DF92EF92FF9284
:1014F0000F931F93DF93CF93CDB7DEB7C054D04087
:101500000FB6F894DEBF0FBECDBF80917206843057
:1015100009F083C081E08093E9008091E80080FFBA
:1015200013C0809100018E010F5F1F4FB80112DEC2
:10153000C8016FE070E040E050E00E94521F8091CF
:10154000E8008E778093E80082E08093E900809144
:10155000E80082FF62C05E9ADD245E010894A11C4F
:10156000B11C22E0622E712C6C0E7D1E90EA892E39
:101570009FE0992E3EC0C50161E070E040E050E080
:101580000E94001F8530B9F3D394E981F0E0EE0F9B
:10159000FF1FEC50FE4F0081118101501040C80127
:1015A0008D0D911D8034910598F020E931E05E9811
:1015B00088EE93E0F9013197F1F70197D9F75E9A38
:1015C00088EE93E0F9013197F1F70197D9F7EFCF62
:1015D000C301B80140E050E00E94001F8530C1F314
:1015E000D00E0F5F1F4FC501B80105D6C40101978A
:1015F000F1F72091F3008091F200F22EEE2490E0BA
:101600008E299F29892B21F08FE38D1508F0B3CF08
:101610008091E8008B778093E800C05CDF4F0FB6C5
:10162000F894DEBF0FBECDBFCF91DF911F910F9118
:10163000FF90EF90DF90BF90AF909F908F907F9042
:101640006F9008950F931F93DF93CF93CDB7DEB7BD
:1016500064970FB6F894DEBF0FBECDBF0091BE02F7
:10166000802F0E94911B8823B1F081E09CE00E94B2
:101670009A1B85E796E062E070E00E94C11B87E755
:1016800096E062E070E00E94C11B84E796E061E0B2
:1016900070E00E94CC1B80917406813021F089306B
:1016A00009F06CC02BC0802F0E94911B882321F071
:1016B00081E091E00E94B61B80917306813A09F0A7
:1016C0005DC05E9A809175069091760623E0873022
:1016D000920731F48E010F5F1F4FC8014CD43EC0FA
:1016E0008E010A5F1F4FB80135DD8091E800877FCA
:1016F0008093E800C8016FE070E038C0802F0E943E
:10170000911B882321F08BE091E00E94B61B809111
:101710007306813299F55E9A8091E800877F809305
:10172000E8008E010A5F1F4F6091790670917A067A
:10173000C8010E94521E0E94771C809175069091EC
:10174000760685509340C9F480ED97E00197F1F754
:10175000C8018E010F5F1F4FB801DDD48091E800F2
:10176000877F8093E800C80165E070E00E94EC1D6F
:101770008091E8008B778093E8005E9864960FB6BE
:10178000F894DEBF0FBECDBFCF91DF911F910F91B7
:1017900008950F931F9381E061EC42E30E94421C85
:1017A000082F82E060EC42E30E94421C1092150177
:1017B00010921601109217011092180110E090E09B
:1017C0000823192300FF02C090E001C090E48BB110
:1017D0008F7B982B9BB91F910F91089584B7877FBA
:1017E00084BF88E10FB6F894809360001092600087
:1017F0000FBE80E090E020E80FB6F89420936100DF
:10180000809361000FBE569A5E989CDD0C940E1D6D
:10181000E5DF5E98789408C05E9A8CE291E02CD166
:101820005E988CE291E028D183DC892BA9F357DE06
:101830000E94411C0E94411C0E9413210E94411CD5
:10184000F3CF94E2899FC001112483559E4F90935A
:10185000C7028093C6020895843180F4282F30E0B7
:1018600088E290E0289FF001299FF00D389FF00D4D
:101870001124E853FD4F8081826080830895282FD2
:101880008431F8F4A82FB0E088E290E0A89FF0013E
:10189000A99FF00DB89FF00D1124E853FD4F8081F2
:1018A0008D7F8083A25BB94F15968C91882349F474
:1018B000E091C602F091C7020484F585E02D822FE5
:1018C000099508951F9311E0812FD9DF1F5F14310F
:1018D000D9F71F910895482F8431E8F4282F30E07C
:1018E00088E290E0289FF001299FF00D389FF00DCD
:1018F0001124E853FD4F10828091F501481710F430
:101900004093F501E091C602F091C7020684F78585
:10191000E02D842F09950895482F8431C0F4282F95
:1019200030E088E290E0289FF001299FF00D389F79
:10193000F00D1124E853FD4F8081882341F0E8E247
:101940004E9FF0011124EB52FD4F818108958FEFDE
:1019500008950F931F93382FFB0180819181081701
:10196000190711F480E010C01183008332FF0BC00F
:10197000E091C602F091C7020088F189E02D842F22
:10198000622FA801099581E01F910F9108950F938F
:10199000982FFB018081081711F480E010C00083AC
:1019A00092FF0CC0E091C602F091C7020088F18955
:1019B000E02D842F622F402F50E0099581E00F9198
:1019C00008952FEF8F3F920719F420E030E008C010
:1019D0009C0130703695279580709F77280F391FAE
:1019E000C90108952FEF8F3F920719F420E030E0EE
:1019F00009C09C01220F331F20703F778F779070B2
:101A0000280F391FC9010895282F332727FD309546
:101A100087FF02C020583048C9010895BC0180EDFD
:101A200097E00E9426216F5F7F4F76956795CB01E7
:101A3000089570E0992787FD90959C01629FC001F1
:101A4000639F900D729F900D11246FEF70E00E94C4
:101A50003A21862F089520E304C0922F9A95F1F73A
:101A600081508823D1F708952498259885E0F3DFE5
:101A7000249A259A81E0EFCF20EA3FE004C0A895A0
:101A8000F9013197F1F701974FEF8F3F9407B9F7BD
:101A90000895982F8091C80085FFFCCF9093CE00C9
:101AA0000895EF92FF920F931F93CF93DF937C01E2
:101AB0008B018091BF02882341F08EE59CE00E945B
:101AC0009A1BC701B8010E94CC1BC0E0D0E006C041
:101AD000F701EC0FFD1F8081DCDF2196C017D107D5
:101AE000B8F3DF91CF911F910F91FF90EF90089580
:101AF000FF920F931F93DF93CF9300D00F92CDB738
:101B0000DEB78C01F62EE091C602F091C70202808A
:101B1000F381E02DCE0101960995698170E0C1DF66
:101B2000C8016F2D70E0BDDF1A8206C0F8018191F7
:101B30008F01980F9A83FA949A81FF20B9F79195B3
:101B40009F779A83CE01029661E070E0AADF87EF6B
:101B50008B83CE01039661E070E0A3DF0F900F90BE
:101B60000F90CF91DF911F910F91FF9008950F93E8
:101B70001F938C0188E69CE00E949A1BC801019685
:101B800061E070E00E94CC1BE091C602F091C702B8
:101B90000488F589E02DD80111968C9109951F9143
:101BA0000F9108952EE436E0C90160E070E048E14D
:101BB00050E00E944D21539A1092C8008FE190E0AE
:101BC0009093CD008093CC0086E88093CA0088E093
:101BD0008093C9001092CE0028EC32E0C90160E089
:101BE00070E040E253E00E944D212BE436E0C90151
:101BF00060E070E043E050E00E944D2182E080937D
:101C0000F501E091C602F091C7020190F081E02D4C
:101C10000995089582E08093F50128EC32E0C9012E
:101C200060E070E040E253E00C944D218091F501BA
:101C3000833111F440E038C04091F5014F5F40938B
:101C4000F501415028E230E009C08091F50183316F
:101C5000A0F48091F5018F5F8093F5018091F501EB
:101C600090E0829FF001839FF00D929FF00D112470
:101C7000E853FD4F8081882341F7242F30E088E22C
:101C800090E0289FF001299FF00D389FF00D11245E
:101C9000DF01A853BD4F81E08C93EB52FD4F8BE1E8
:101CA000DF011D928A95E9F7842F08958CE191E078
:101CB0000C94B61B0F931F93CF93DF93EC01198104
:101CC00082E080934B0680914C06846080934C06A2
:101CD00080914C06806180934C0610924D06E091F5
:101CE000C602F091C7020480F581E02D812F09958D
:101CF000082F133041F1143030F4113061F01230FC
:101D000009F04EC013C01530B9F1153028F1163066
:101D100009F046C03BC08DE291E00E94B61B002353
:101D200009F44AC080914C0682600AC08EE391E0BB
:101D30000E94B61B002309F43FC080914C068D7FA2
:101D400080934C0639C080E591E00E94B61B0023C9
:101D500099F110924D0630C081E691E00E94B61BC9
:101D6000002351F18BE490E087DE54DF80914C0634
:101D7000826080934C0610C087E691E00E94B61BFB
:101D80000023D1F080914C068160DACF8DE691E09E
:101D90000E94B61B002381F080914C068E7FD0CF2D
:101DA000107C51F086E79CE00E949A1BCE010196C0
:101DB00061E070E00E94CC1BDF91CF911F910F91E9
:101DC0000895DF93CF930F92CDB7DEB7FC018181E9
:101DD00089838091BE020E94911B882351F08DE778
:101DE0009CE00E949A1BCE01019661E070E00E9487
:101DF000CC1B89818F3F59F40DDFE091C602F09131
:101E0000C7020684F785E02D8FE7099501C063DDE1
:101E10000F90CF91DF9108958091BE020E94911B97
:101E2000882321F086E791E00C94B61B08958091F9
:101E3000BE020E94911B882321F080E991E00C945E
:101E4000B61B0895EF92FF921F93DF93CF930F92EB
:101E5000CDB7DEB77C01FC01818189831091BE0280
:101E6000812F0E94911B882351F085EB9CE00E94FA
:101E70009A1BCE01019661E070E00E94C11B89812E
:101E80008F3F11F48FE78983F70182818130F1F46C
:101E9000812F0E94911B882321F08EEA9CE00E94F2
:101EA000A61BF7018181D8DC9981E92FF0E0E25B84
:101EB000F94F8581882309F057C0E091C602F0915F
:101EC000C7020284F385E02D892F2EC0823071F580
:101ED000812F0E94911B882321F083EA9CE00E94BD
:101EE000A61BF0DCE981F0E0E25BF94F85818823F5
:101EF00049F4E091C602F091C7020484F585E02D13
:101F00008FE70995F7018181A7DCE981F0E0E25BC9
:101F1000F94F8581882341F5E091C602F091C7020F
:101F20000284F385E02D8FE709951EC0833069F4A4
:101F3000812F0E94911B882321F08DE99CE00E9453
:101F4000A61BF70181819BDC0FC0812F0E94911B92
:101F5000882351F08AE89CE00E94A61BC7010296E4
:101F600061E070E00E94CC1B0F90CF91DF911F9138
:101F7000FF90EF900895CF93DF93EC018091BE0224
:101F80000E94911B882321F087EC9CE00E94A61BF5
:101F900041DE87E088838FEF9FEF9A83898380E11A
:101FA0008B8383E08C83DF91CF910895EF92FF9232
:101FB0000F931F93CF93DF93EC01998188E2989F51
:101FC0007001112488EC92E0E80EF91E8091BE02A7
:101FD0000E94911B882309F465C080E29DE00E9465
:101FE0009A1BCE0160E170E00E94CC1B88E19DE06D
:101FF0000E949A1BCE01019661E070E00E94CC1B0A
:1020000080E19DE00E949A1BCE01029661E070E0A3
:102010000E94CC1B88E09DE00E949A1BCE0109968D
:1020200061E070E00E94CC1B80E09DE00E949A1B62
:10203000CE01039662E070E00E94CC1B8B85882362
:10204000A1F08BEF9CE00E949A1BCE010C9661E000
:1020500070E00E94CC1B86EF9CE00E949A1BCE0190
:102060000D9661E070E00E94CC1B8D819E81892BD2
:1020700051F08CEE9CE00E949A1BCE01059662E026
:1020800070E00E94CC1B8A85882351F082EE9CE090
:102090000E949A1BCE010A9661E070E00E94CC1B60
:1020A0000E94411C8701035F1F4F8B819C81EFEFD2
:1020B0008F3F9E0719F420E030E002C082DC9C01D3
:1020C000F7018081E091C602F091C7020D5F1F4FBA
:1020D0000288F389E02DB80149810995E091C60293
:1020E000F091C70202A0F3A1E02DCE01B70109953E
:1020F000682FF701808182FD07C0C7010D96F8DCCB
:10210000F701808184608083DF91CF911F910F91CF
:10211000FF90EF900895FF920F931F93CF93DF935B
:102120008C01EB0186E08883E091C602F091C70242
:10213000D80111968C910680F781E02D8150099588
:10214000F82EE091C602F091C7020084F185E02DDF
:102150000995882311F0198202C068DD898399816D
:10216000992319F482E08A8315C081E08A83E8E22A
:102170009E9FF0011124E853FD4FF686A091C60200
:10218000B091C70256962D913C915797C801BF0157
:10219000F90109958FEF9FEF9C838B838091BE029D
:1021A0000E94911B8823B1F086E39DE00E949A1B58
:1021B000CE01019661E070E00E94C11B8CE29DE0BF
:1021C0000E949A1BCE01029661E070E00E94CC1B37
:1021D0000E94411C86EA91E06881AE0125E030E072
:1021E0000E94D71B85E090E047DCDF91CF911F91E3
:1021F0000F91FF900895CF93DF93EC019B015E9ABE
:102200008FE49DE066EF71E0AE010E94FA1B9981B8
:102210008881873009F470C08830A8F48330D1F108
:10222000843030F4813029F1823009F079C024C043
:10223000853009F447C0E091C602F091C7028630AC
:1022400008F04EC035C08B3009F45FC08C3038F4D4
:10225000883009F454C08A3009F062C053C08D3010
:1022600009F459C08D3008F453C08E3009F058C0BD
:1022700055C0CE019BDE54C0E091C602F091C7026A
:1022800068E2969FB001112468537D4F008CF18D58
:10229000E02D2FC0E091C602F091C70268E2969F40
:1022A000B001112468537D4F028CF38DE02D21C0C5
:1022B00068E2969FB001112468537D4F048CF58D20
:1022C000E02D17C0E091C602F091C70268E2969F28
:1022D000B001112468537D4F068CF78DE02D09C0A5
:1022E00068E2969FB001112468537D4F00A0F1A1D0
:1022F000E02DCE01099514C0CE0199DD11C0CE01AB
:102300008BDD0EC0CE019EDD0BC0CE015ADD08C0B4
:10231000CE01D0DC05C0CE012ADC02C0CE01C6DC75
:102320005E98DF91CF9108958C3010F080E0089591
:10233000E82FF0E0E258FD4F80810895FC0185E030
:10234000808384E192E0089590E0880F991F6623CE
:1023500031F08C549F4F68E671E00E9426219C0169
:1023600020783170220F331F8F779070280F391F1C
:10237000C9010895282F8FEF689FC0011124622F93
:1023800070E00E942621CB016F3F710519F010F01B
:102390008FE70895969587958F770895CF93DF936C
:1023A000EC01DB01FB013D962FE7218B81E090E002
:1023B000968B858B1686108A1786148A138A128A42
:1023C00021871682158284E690E09387828783E2D4
:1023D0001D968C931D97228380E19EE495878487C8
:1023E0008981813019F4128E118E04C081E091E050
:1023F000928F818F8981883028F4823030F4813047
:1024000091F519C08C3078F527C0FD0131968FEF1A
:102410009FEF12969C938E931197938382832FEF55
:10242000248325831086178281E090E0928781873C
:102430001386268318C0FD0131968FEF9FEF129609
:102440009C938E931197938382838FEF84838583EC
:1024500017821086868307C0FD0131968FEF828335
:1024600011961C921182DF91CF9108950F931F93C3
:10247000890120E46EDA1F910F910895AF92BF9207
:10248000CF92DF92EF92FF920F931F93CF93DF9340
:102490006C01A62EEC012D96FC013196842F992714
:1024A00087FD909547FD06C080549040E82EEE0CC5
:1024B0004FE707C00196880F991F482F415870E8D1
:1024C000E72EB42EBE188385882311F0E42E4B1915
:1024D000F601F0806796842F97DA8C018F2DBE016C
:1024E0004A2D24E736DAF601F08022968E2D8CDA1A
:1024F0008C018F2DBE014A2D28E72BDA8B2DDF9121
:10250000CF911F910F91FF90EF90DF90CF90BF90F0
:10251000AF900895009759F46A31710518F464E694
:1025200070E007C0660F771F660F771F02C076DA6C
:10253000BC01CB0108957F928F929F92AF92BF9280
:10254000CF92DF92EF92FF920F931F93CF93DF937F
:102550005C01EB01DC011196EC9011972DE0C22E8D
:10256000D12CC60ED71E1A968C918F3F19F420E0FD
:1025700030E007C021E030E002C0220F331F8A950F
:10258000E2F78881B6016B5F7F4F89010078117097
:10259000000F111F2F773070020F131F4E2D24E4F0
:1025A000D8D9F5018281883030F4823058F48130F6
:1025B00009F0D4C009C08B3008F47EC08B3009F01C
:1025C000CDC0A3C0772406C0D5011C968C91898705
:1025D000772473944E010894811C911C8881E9E052
:1025E000F0E0CE0EDF1ED50119960C910695B601CE
:1025F0004E2D2CE4CCD9F880EEEFFFEFCE0EDF1E8F
:10260000D5011C968C9160E09FDE8C018F2DB60168
:10261000E9EFFFEFCE0EDF1E4E2D28E49AD9D5014B
:1026200013968D919C9114979A83898313968D911B
:102630009C911497BFEF8F3F9B07A9F0F401228173
:102640003381FFEF2F3F3F0771F02817390728F438
:10265000821B930BB6D98C0108C0D60113960D913D
:102660001C91149702C000E010E08881B6016E5EF4
:102670007F4F4E2D20E66DD9772009F06FC0FE0107
:102680003196D50117968D919C91189790878783E5
:102690006185728517968D919C9118973BDFF88024
:1026A000EAE0F0E0CE0EDF1E9DD98C018F2DB60141
:1026B0004E2D20E54ED952C06E010894C11CD11C8C
:1026C000D50119968C911997F6018283F88089813A
:1026D00019966C91AED998D98C018F2D6496BE0154
:1026E00064974E2D28E435D9F8806696D601119668
:1026F0008C91F50161859DD987D98C018F2DBE0103
:102700004E2D2CE426D98FE02AC06E010894C11CFE
:10271000D11CD50119968C911997F6018283F88006
:10272000898119966C9185D96FD98C018F2D64960A
:10273000BE0164974E2D28E40CD9F8806696D60128
:1027400011968C91F501618574D95ED98C018F2D1C
:10275000BE014E2D2CE4FDD88BE001C08BE190E052
:10276000DF91CF911F910F91FF90EF90DF90CF906D
:10277000BF90AF909F908F907F9008957F928F929F
:102780009F92AF92BF92CF92DF92EF92FF920F9300
:102790001F93DF93CF930F92CDB7DEB78C014B0120
:1027A000FC0171808091BE02BCD7882321F1F80121
:1027B000818189838FE69DE0BDD7C80164E070E028
:1027C000EBD789E69DE0B6D7CE01019661E070E0D7
:1027D000E3D780E69DE0AED7C801029661E070E0E5
:1027E000DBD787E59DE0A6D7C801039661E070E0DE
:1027F000D3D70E94411C3DE0E32EF12CE80CF91CDC
:1028000054010894A11CB11CF801228193819217F4
:102810003CF481E0F5018387F801D280838105C013
:10282000F5011386F801D3808281D81A892F992760
:1028300087FD9095332727FD3095820F931F62E027
:1028400070E00E943A21462FC401672D17DEC82E82
:10285000F401108121E130E0E20EF31E6D2D8ADDDE
:10286000082F812FB701EFEEFFEFEE0EFF1E472D71
:1028700028E68DD8F5018681C81609F1C682F401D3
:10288000108124E130E0E20EF31E8C2DF50165810C
:1028900071DD082F812FB701472D2CE678D8F40180
:1028A00010812AEF3FEFE20EF31E8C2DF5016481BB
:1028B00061DD082F812FB701472D24E668D80F90DE
:1028C000CF91DF911F910F91FF90EF90DF90CF900C
:1028D000BF90AF909F908F907F9008957F928F923E
:1028E0009F92AF92BF92CF92DF92EF92FF920F939F
:1028F0001F93DF93CF930F92CDB7DEB77C015B01BF
:10290000FC01818189838091BE020BD78823C1F0AD
:1029100082E99DE00FD7C70164E070E03DD78CE805
:102920009DE008D7CE01019661E070E035D78FE7D2
:102930009DE000D7C701029662E070E02DD7A1D7D5
:102940006DE0C62ED12CCA0CDB1C45010894811CFD
:10295000911CF7018281F4018783F70102811381C1
:1029600017FF02C000951095159507950F77F50193
:102970008081B6016F5E7F4F498128E608D8F50156
:10298000708047E0A42EB12CAC0CBD1C60E0F701B8
:102990008281938197FD61E0F4018085D5DC8C0113
:1029A000872DB501498128E40E94A90C8FE790E0AA
:1029B000F601908F878B128E118E0F90CF91DF9141
:1029C0001F910F91FF90EF90DF90CF90BF90AF904D
:1029D0009F908F907F9008954F925F926F927F9219
:1029E0008F929F92AF92BF92CF92DF92EF92FF921F
:1029F0000F931F93DF93CF930F92CDB7DEB73C01B8
:102A00002B01FC01818189838091BE028AD68823B3
:102A100081F180EE9DE08ED6C30167E070E0BCD608
:102A20008AED9DE087D6CE01019661E070E0B4D6D4
:102A30008DEC9DE07FD6C301029661E070E0ACD6DC
:102A400080EC9DE077D6C301039661E070E0A4D6E8
:102A500083EB9DE06FD6C301049661E070E09CD6E5
:102A600086EA9DE067D6C301059662E070E094D6E1
:102A700008D77DE0A72EB12CA40CB51C4201089408
:102A8000811C911CF301858196818E30910518F48B
:102A90000DE410E00AC0F3E0883E9F0718F001E063
:102AA00010E003C00E940E0D8C01F4011287018713
:102AB00087819085B8012EDD6C01F201F08025E15F
:102AC00030E0A20EB31EE980C8010E94F20C8C0116
:102AD0008F2DB5014E2D20E70E94A90CF201F08048
:102AE00025EF3FEFA20EB31EE980C6010E94F20C53
:102AF0008C018F2DB501E6EFFFEFAE0EBF1E4E2D00
:102B000020E50E94A90CF201808182FD2EC0F50112
:102B10008181823019F081818330E1F4F301848175
:102B2000829586958770853028F4833068F48823F1
:102B300029F006C0873050F08730B9F482E001C038
:102B400083E0F50181830FC082E001C083E0F501DD
:102B5000818305C0F301848181548F3720F481E0A3
:102B6000F401838702C0F4011386C2016981F30175
:102B7000438184DCE82EF201108121E130E0A20ED5
:102B8000B31EF3016281F6DB082F812FB5012FEE12
:102B90003FEFA20EB31E498128E60E94C70CF40144
:102BA0008681E81619F1E682F201108124E130E015
:102BB000A20EB31E8E2DF4016581DCDB082F812F60
:102BC000B50149812CE60E94C70CF20110812AEF61
:102BD0003FEFA20EB31E8E2DF4016481CBDB082FD4
:102BE000812FB501498124E60E94C70C0F90CF9137
:102BF000DF911F910F91FF90EF90DF90CF90BF90EA
:102C0000AF909F908F907F906F905F904F900895BE
:102C10008F929F92AF92BF92CF92DF92EF92FF92EC
:102C20000F931F93DF93CF930F92CDB7DEB75C0165
:102C30006B01FC0181818983FDE0EF2EF12CE60E12
:102C4000F71E8B010F5F1F4F8091BE026AD588234C
:102C500041F185E19EE06ED5C50169E070E09CD54B
:102C60008CE09EE067D5CE01019661E070E094D5DE
:102C700082E09EE05FD5C501029661E070E08CD5F0
:102C800088EF9DE057D5C501039661E070E084D5DB
:102C90008EEE9DE04FD5C501049661E070E07CD5D5
:102CA000F0D5F5018481F80162810E94190D282F69
:102CB000F70181818D3008F48AC0803120F08031A5
:102CC00009F085C05CC0EDE08E2E912C8C0C9D1C13
:102CD000F50182819481E980882331F5F6019183A1
:102CE000F08084E190E0C80ED91E822F0E94040D6E
:102CF0008C018F2DB601ECEEFFEFCE0EDF1E4E2DB8
:102D000028E40E94A90CF601F08028E130E0C20E10
:102D1000D31EE980F50183810E94040D8C018F2D63
:102D2000B6014E2D20E551C0F8019183F601F080E7
:102D300086E190E0C80ED91E822F0E94040D8C01FE
:102D40008F2DB601EAEEFFEFCE0EDF1E4E2D2CE4E6
:102D50000E94A90CF5018381803819F40FE710E077
:102D600004C081950E94040D8C01F60180812DE044
:102D700030E0820E931EB401498124E526C0F5019E
:102D800082819481E980882381F4F6019183F08027
:102D900084E190E0C80ED91E822F0E94040D8C01A0
:102DA0008F2DB6014E2D28E410C0F8019183F60155
:102DB000F08086E190E0C80ED91E822F0E94040D9B
:102DC0008C018F2DB6014E2D2CE40E94A90C0F9082
:102DD000CF91DF911F910F91FF90EF90DF90CF90F7
:102DE000BF90AF909F908F9008956F927F928F9237
:102DF0009F92AF92BF92CF92DF92EF92FF920F938A
:102E00001F93DF93CF930F92CDB7DEB75C014B01D9
:102E1000FC01818189838091BE0283D4882381F162
:102E20008EE59EE087D4C50168E070E0B5D484E506
:102E30009EE080D4CE01019661E070E0ADD48AE4DA
:102E40009EE078D4C501029661E070E0A5D480E4EC
:102E50009EE070D4C501039661E070E09DD482E3EA
:102E60009EE068D4C501049662E070E095D484E2E7
:102E70009EE060D4C501069662E070E08DD401D575
:102E8000ADE0CA2ED12CC80CD91C34010894611CA9
:102E9000711CF5018281F3018483F5018381F301C3
:102EA0008583F50126813781F30133832283F50180
:102EB000868197818F5F9F4F19F400E010E008C072
:102EC000F40181819281821B930B0E94E10C8C01A1
:102ED000F401808122E130E0C20ED31EB6014981A7
:102EE00020E60E94A90CF401F0802DEF3FEFC20E06
:102EF000D31EE980F501848195810E94E10C8C014B
:102F00008F2DB6014E2D2CE50E94A90CF4011081E5
:102F100025E030E0C20ED31EF3018681F501638106
:102F200029DA082F812FB60149812CE60E94C70CAF
:102F3000F40110812AEF3FEFC20ED31EF301868108
:102F4000F501628117DA082F812FB601498124E645
:102F50000E94C70C0F90CF91DF911F910F91FF90AE
:102F6000EF90DF90CF90BF90AF909F908F907F9029
:102F70006F900895EF92FF920F931F93DF93CF937B
:102F800000D00F92CDB7DEB78A0195EB99836A83A3
:102F90008B837E010894E11CF11CC70163E070E0A3
:102FA0000E94510D85EA8983802F8F778A83007074
:102FB0001F771B83C70163E070E00E94510D0F90E3
:102FC0000F900F90CF91DF911F910F91FF90EF9095
:102FD0000895482F46958FE76CE750E0CBCFDF93FD
:102FE000CF9300D00F92CDB7DEB795EB99836A836C
:102FF0008B83CE01019663E070E00E94510D0F902B
:103000000F900F90CF91DF91089560E1E8CF60E3DA
:10301000E6CF60E2E4CFDF93CF9300D0CDB7DEB749
:10302000E82F8150863010F080E00EC085EC898357
:10303000F0E0E85EFD4F80818A83CE01019662E078
:1030400070E00E94510D81E00F900F90CF91DF91C1
:1030500008951F93182F06C00E94340D8AE00E9425
:103060002B0D11501123C1F71F91089584E690E0B4
:103070000E943C0D0E94340D87E090E00E943C0DC0
:1030800084E0E7DF83E290E00E943C0D83E0E1DF33
:103090008EE090E00E943C0D82E0DBDF8EE490E069
:1030A0000E943C0D82E0D5DF84E090E00E943C0D60
:1030B00083E0CFDF8BE390E00E943C0D82E0C9DF2C
:1030C0008CE792E062E070E00E94510D84E190E0B4
:1030D0000E943C0D83E792E069E070E00E94510D90
:1030E00089E390E00E943C0D80E492E063E370E0AD
:1030F0000E94510D8FE192E061E270E00E94510D5B
:1031000084E089DF86E490E00C943C0DCF92DF925E
:10311000EF92FF920F931F9300E0FF24EE24DD2433
:10312000CC2412E08C3060F48A30B8F4873028F474
:10313000853098F48230D1F410C08830B9F40DC0D5
:103140008F3089F0803128F48D3049F08E3071F461
:1031500008C0803151F0823149F40F5F07C0F39409
:1031600005C0E39403C0D39401C0C394812F0E948F
:103170008C0C1F5F1531B1F60B3058F482E08F15BF
:1031800040F08E1530F08D1520F080E092E09C1517
:1031900008F481E01F910F91FF90EF90DF90CF90A6
:1031A00008958C3010F080E00895E82FF0E0E155AC
:1031B000FD4F80810895FC0185E080838AE892E0DC
:1031C0000895089508950895FC018281883028F4B7
:1031D000823040F4813041F409C08B3048F08B30AC
:1031E00019F408C083E107C080E005C08FE003C088
:1031F0008EE001C087E090E00895CF93DF93EC016B
:10320000FB01DB011D9680E285879FE712969C9368
:10321000129715961C9215978981883030F4823068
:1032200058F4813009F076C040C08B3008F454C0A7
:103230008B3009F06FC06BC080E415968C931597A6
:1032400016969C93169719969C9319971B961C9209
:103250001E921A971C969C931C971F969C931F97DF
:103260008EE352968C9352978981823059F4189646
:103270001C921E9217978EE69EE11E969C938E934B
:103280001D970EC080E090E418969C938E9317973C
:1032900085E692E11E969C938E931D9784E793E0BA
:1032A00051969C938E93509735C016969C93169783
:1032B00017969C93179719961C921E9218971A9618
:1032C0009C931A971C961C921E921B971D969C937A
:1032D0001D971E961C921EC080E09DE717969C933A
:1032E0008E9316979EE318969C9318978FE31996E2
:1032F0008C9319971A969C931A971B968C931B97ED
:103300008DE790E01D969C938E931C9703C08EE7EB
:1033100016968C93DF91CF910895DF92EF92FF92F2
:103320000F931F93CF93DF93FC017B01D180EB01BF
:103330002D968281938197FD06C095958795082FDC
:103340000F7710E007C08095909595958795082F89
:103350000F771FE7F70180812A96BE014D2D26E0E9
:103360000E94C70CF70180812496BE014D2D29E0F3
:10337000012F0E94C70CDF91CF911F910F91FF90F9
:10338000EF90DF900895BF92CF92DF92EF92FF927D
:103390000F931F93CF93DF937C01EB01FC01B1806E
:1033A0005DE0C52ED12CC60ED71E8281882381F503
:1033B0002881675E7F4F848187FD8F5F8595992780
:1033C00087FD90950FE310E0081B190B0F77107025
:1033D000102F00270D67822F4B2D26E00E94A90C8D
:1033E0009881B6016A5F7F4FF701858187FD8F5F06
:1033F0008595E82FFF27E7FDF095E05CFF4FEF771D
:10340000F070892F4B2D23E000E01E2F0E94A90CA5
:10341000DF91CF911F910F91FF90EF90DF90CF90B0
:10342000BF9008950F931F93890120E00E94A90C7B
:103430001F910F910895DF93CF9300D000D000D05B
:10344000CDB7DEB76B838C834D835E83982F960F49
:10345000940F950F892F805187FD02C060646B83A4
:10346000919591579F779A8381EF8983CE01019639
:1034700066E070E00E94510D26960FB6F894DEBF0C
:103480000FBECDBFCF91DF910895482F469580E0C4
:1034900060E050E0D0CFDF93CF9300D00F92CDB754
:1034A000DEB792EF99838B836295607F982F929518
:1034B0009F702DE09227262F22952F7092278F70D4
:1034C0009827962B9A83CE01019663E070E00E94C4
:1034D000510D0F900F900F90CF91DF91089561E003
:1034E000DACF63E0D8CF62E0D6CFDF93CF9300D0BE
:1034F000CDB7DEB7E82F8150863010F080E00EC0E7
:1035000083EF8983F0E0E257FD4F80818A83CE010B
:10351000019662E070E00E94510D81E00F900F90E3
:10352000CF91DF91089584E690E00E943C0D8DEAF2
:1035300092E062E070E00E94510D85E992E068E15E
:1035400070E00E94510D84E0D0DF84E690E00C949E
:103550003C0DDF92EF92FF920F931F9300E0FF2448
:10356000EE24DD2412E08D3091F08E3038F482307C
:1035700098F0863010F1863079F407C08F3059F01A
:103580008F3038F0803141F418C00F5F05C0F394DC
:1035900003C0E39401C0D394812F0E948C0C1F5F61
:1035A000153109F7033048F482E08F1530F08E159D
:1035B00020F080E092E09D1508F481E01F910F91CA
:1035C000FF90EF90DF90089523B5216023BD909385
:1035D00085008093840081E086BBB09BFECF089578
:1035E000FC0123818281282784812827858128273F
:1035F000603121F48181908189272827822F82954B
:103600008F708227982F969596959827292F269523
:1036100029276B3011F481812827822F817008952A
:103620005E9A81EC9FEFD0DF5E9883E89FEFCCCF6E
:103630001F9380916D06843011F010E101C01BE0F2
:1036400080E0612F0E945708E898882361F48091F8
:10365000E9058F5F8093E9058B30F8F0F89480E2FC
:103660008093D800FFCF1092E90589E396E0612F9F
:10367000B7DF882391F080916D06843051F4A6E67F
:10368000B6E0E9E3F6E086E001900D928150E1F7C3
:1036900004C089E396E00E949D071F9108951DB81C
:1036A00080E48EB910BA83EF81BB93E095BD85E0CD
:1036B00080938100909369008BEC93EF85DFB0DFFE
:1036C0008BEC93EF81DF80E06EE70E945708A8DF64
:1036D0008091400680914006813159F489E396E05B
:1036E00060E17EDF882329F083E080936D0680E02F
:1036F0000EC0809140068C3091F489E396E06BE037
:103700006FDF882361F084E080936D0681E00E9482
:10371000210CE898F8948FE08093E8050895E898E4
:10372000CECF9091BF0220E09823981709F421E0B2
:10373000822F08959C018091BF02882331F0F90106
:103740002F5F3F4FE491EE23D1F708959C018091C4
:10375000BF02882311F0C901EDCF0895FC018091CB
:10376000BF02882311F08191FCCF08959C018091C4
:10377000BF02882311F0C901F1CF08958091BF02E3
:1037800008959C018091BF02882329F0662319F0D7
:10379000C90170E0F3CF08959C018091BF02882396
:1037A00029F0662319F0C90170E0E8CF0895EF927F
:1037B000FF920F931F93DF93CF930F92CDB7DEB796
:1037C000FC0169838A0179018091BF02882351F04D
:1037D000CF01C4DFCE01019661E070E0D2DFC80105
:1037E000B701DADF0F90CF91DF911F910F91FF901A
:1037F000EF900895AF92BF92CF92DF92EF92FF9237
:103800000F931F93CF93DF93FC016B01F42EE52EF2
:1038100089018091BF02882349F1CF018BDF8F2D71
:103820009E2DEC017E01E00EF11E31E0A32EB12CA5
:103830001AC088819501281B3109C901880F991F79
:10384000F601E81BF90B1081CE0161E070E099DF11
:10385000123038F0612F70E061507040CE01019657
:1038600090DFC10FD11DCE15DF0518F3DF91CF9189
:103870001F910F91FF90EF90DF90CF90BF90AF908E
:1038800008950895382F282F2CC02093E90023177E
:1038900021F4762F942F50E006C07091EC009091A7
:1038A000ED005091F00091FF1BC08091EB008E7FE6
:1038B0008093EB008091ED008D7F8093ED008091EF
:1038C000EB0081608093EB007093EC009093ED002F
:1038D0005093F0008091EE0087FD02C080E00895D3
:1038E0002F5F273090F23093E90081E008958091B6
:1038F000730688239CF404C0809172068823B9F073
:103900008091E80082FFF8CF8091E8008B77809368
:10391000E800089580917206882349F08091E800BC
:1039200080FFF8CF8091E8008E778093E8000895BB
:103930004091E4005091E50024E68091EC0080FF86
:1039400024C08091E80080FD1EC08091720688230B
:1039500011F482E00895853011F483E00895809198
:10396000EB0085FF02C081E008958091E400909112
:10397000E5008417950709F3222311F484E00895E4
:103980002150AC01DACF80E008958091E80082FFF9
:10399000DCCFF9CFEF92FF920F931F934AD051D013
:1039A00008ED10E0F80180818F7780838081806846
:1039B000808380818F7D808319BC10927206109263
:1039C0006E061092700610926F0680EEE82EF12CB3
:1039D000F70180818B7F8083F80180818160808303
:1039E00080E060E042E04EDFE1EEF0E080818E7F3B
:1039F0008083E2EEF0E08081816080838081886056
:103A00008083F70180818E7F8083F80180818061CF
:103A100080831F910F91FF90EF900895E7EDF0E004
:103A200080818160808384E082BF81E08093710621
:103A3000B1CFE8EDF0E080818E7F80831092E200CC
:103A400008951092DA001092E10008951F920F92EB
:103A50000FB60F9211242F933F934F935F936F9361
:103A60007F938F939F93AF93BF93EF93FF93809137
:103A7000E10082FF0AC08091E20082FF06C08091CF
:103A8000E1008B7F8093E100CDD38091DA0080FF4D
:103A90001FC08091D80080FF1BC08091DA008E7F0C
:103AA0008093DA008091D90080FF0DC080E189BD4C
:103AB00082E189BD09B400FEFDCF81E080937206EA
:103AC0000E946B0A05C019BC109272060E946D0A12
:103AD0008091E10080FF18C08091E20080FF14C057
:103AE0008091E2008E7F8093E2008091E20080610D
:103AF0008093E2008091D80080628093D80019BC46
:103B000085E0809372068ED38091E10084FF2DC002
:103B10008091E20084FF29C080E189BD82E189BDF6
:103B200009B400FEFDCF8091D8008F7D8093D8002E
:103B30008091E1008F7E8093E1008091E2008F7E92
:103B40008093E2008091E20081608093E2008091A6
:103B50006E06882331F48091E30087FD02C081E086
:103B600001C084E0809372065DD38091E10083FF01
:103B700022C08091E20083FF1EC08091E100877F18
:103B80008093E10082E08093720610926E0680912D
:103B9000E1008E7F8093E1008091E2008E7F809330
:103BA000E2008091E20080618093E20080E060E0CA
:103BB00042E068DE37D3FF91EF91BF91AF919F91C3
:103BC0008F917F916F915F914F913F912F910F90C6
:103BD0000FBE0F901F9018959C014091790650914F
:103BE0007A064617570718F4F90190E045C06115A9
:103BF000710511F0AB01F8CF8091E8008E778093CA
:103C0000E80040E050E0F0CF80917206882309F48C
:103C100045C0853009F444C08091E80083FF02C0AC
:103C200081E008958091E80082FD32C08091E80033
:103C300080FF22C08091F3009091F200782F60E025
:103C4000292F30E0262B372B07C081918093F1007C
:103C5000415050402F5F3F4F4115510519F028301A
:103C6000310598F390E02830310509F491E0809116
:103C7000E8008E778093E8004115510529F69923D5
:103C800019F606C080917206882341F0853041F014
:103C90008091E80082FFF6CF80E0089582E00895E9
:103CA00083E008959C016115710529F48091E80075
:103CB0008B778093E800F90127C0809172068823F2
:103CC00099F1853099F18091E80083FF02C081E08D
:103CD00008958091E80082FFF0CF06C08091F10046
:103CE00081936150704059F02091F3008091F2006F
:103CF000322F20E090E0822B932B892B79F7809153
:103D0000E8008B778093E80061157105B1F606C075
:103D100080917206882341F0853041F08091E8005F
:103D200080FFF6CF80E0089582E0089583E0089553
:103D30009C014091790650917A064617570718F46E
:103D4000F90190E046C06115710511F0AB01F8CFA3
:103D50008091E8008E778093E80040E050E0F0CF5B
:103D600080917206882309F447C0853009F446C063
:103D70008091E80083FF02C081E008958091E8000F
:103D800082FD34C08091E80080FF23C08091F30061
:103D90009091F200782F60E0292F30E0262B372B0E
:103DA00008C084918093F1003196415050402F5FBC
:103DB0003F4F4115510519F02830310590F390E03F
:103DC0002830310509F491E08091E8008E778093E6
:103DD000E8004115510521F6992309F0C1CF06C02D
:103DE00080917206882341F0853041F08091E8008F
:103DF00082FFF6CF80E0089582E0089583E0089581
:103E0000BF92CF92DF92EF92FF920F931F93CF93C7
:103E1000DF93182F092F7B016A018ADDB82E8823D2
:103E2000B1F5812F902F9C01E901C114D10439F023
:103E3000F60180819181E81AF90AC80FD91F00E0C4
:103E400010E022C08091E80085FD16C08091E80056
:103E50008B778093E800E7D1C114D10449F0F601D3
:103E600080819181800F911F9183808385E010C0B4
:103E70005FDD882349F00CC08091F100899308949C
:103E8000E108F1080F5F1F4FE114F104D9F68B2D03
:103E9000DF91CF911F910F91FF90EF90DF90CF9026
:103EA000BF900895BF92CF92DF92EF92FF920F934F
:103EB0001F93CF93DF93182F092F7B016A0138DD01
:103EC000B82E8823B1F5812F902F9C01E901C114F0
:103ED000D10439F0F60180819181E81AF90AC80FFE
:103EE000D91F00E010E022C08091E80085FD16C0D7
:103EF0008091E8008E778093E80095D1C114D104B9
:103F000049F0F60180819181800F911F9183808318
:103F100085E010C00DDD882349F00CC089918093A5
:103F2000F1000894E108F1080F5F1F4FE114F1045C
:103F3000D9F68B2DDF91CF911F910F91FF90EF90CC
:103F4000DF90CF90BF9008950F931F93DF93CF938F
:103F5000CDB7DEB7AC970FB6F894DEBF0FBECDBFBE
:103F6000E3E7F6E08091F100819326E0EB37F2077A
:103F7000C9F70E94220B8091E80083FF3AC180912B
:103F8000730630917406353009F487C0363040F43A
:103F90003130C9F1313070F0333009F02AC133C00B
:103FA000383009F4F7C0393009F406C1363009F069
:103FB00020C197C0803821F0823809F01AC108C0AA
:103FC00090916F0680917006882399F0926011C0DD
:103FD000809177068F708093E9008091EB0090E0EC
:103FE00025E0969587952A95E1F7982F9170109284
:103FF000E9008091E800877F8093E8009093F100CA
:104000001092F100D2C0882319F0823009F0F1C07B
:1040100090E08F719070009721F0029709F0E9C04D
:104020000CC080917506813009F0E3C010927006D3
:10403000333069F5809370062AC080917506882315
:1040400031F5209177062F7009F4D3C02093E90051
:104050008091EB0080FF1BC0333021F48091EB0096
:10406000806213C08091EB0080618093EB0081E05F
:1040700090E002C0880F991F2A95E2F78093EA002A
:104080001092EA008091EB0088608093EB00109220
:10409000E9008091E800877F8BC0882309F0A9C0E0
:1040A000109175061F770FB7F8948091E800877F0D
:1040B0008093E8001CDC8091E80080FFFCCF8091B9
:1040C000E3008078812B8093E30080688093E30095
:1040D000112311F482E001C083E0809372060FBFC8
:1040E00088C08058823008F084C080917506909115
:1040F000760623E08C3D920709F033C083E08C8381
:104100008AE28B837FB7F894DE0115966EE040E07B
:1041100050E011E2E62FF0E010935700849140FF49
:1041200003C082958F706F5F8F70282F30E08A30C8
:1041300018F0C901C79602C0C901C0968D939D931E
:104140004F5F5F4F4431510529F77FBF8091E800F1
:10415000877F8093E800CE0103966AE270E03CDD41
:1041600013C060917706AE014F5F5F4F0E94E00978
:10417000BC01009709F43DC08091E800877F8093DF
:10418000E80089819A81D4DD8091E8008B77809363
:10419000E8002FC0803869F58091E800877F809320
:1041A000E80080916E068093F1008091E8008E77A0
:1041B0008093E8009CDB1DC08823D9F4909175069C
:1041C0009230B8F48091E800877F8093E800909364
:1041D0006E068DDB80916E06882331F48091E300BA
:1041E00087FD02C081E001C084E0809372060E94D6
:1041F000C90B8091E80083FF0AC08091EB008062C8
:104200008093EB008091E800877F8093E800AC9674
:104210000FB6F894DEBF0FBECDBFCF91DF911F91D7
:104220000F91089508951F9380917206882361F07D
:104230001091E9001092E9008091E80083FF01C02D
:1042400083DE1F701093E9001F910895AA1BBB1B0A
:1042500051E107C0AA1FBB1FA617B70710F0A61B86
:10426000B70B881F991F5A95A9F780959095BC01A7
:10427000CD01089597FB092E07260AD077FD04D0BB
:10428000E5DF06D000201AF4709561957F4F089500
:10429000F6F7909581959F4F0895DC0101C06D93CD
:0C42A00041505040E0F70895F894FFCF23
:1042AC00FF4765745265706F727400536574526584
:1042BC00706F7274000000000000000853657420D9
:1042CC00437573746F6D20466F72636500456E6144
:1042DC00626C65204163747561746F72730044691C
:1042EC007361626C65204163747561746F727300E5
:1042FC0053746F7020416C6C2045666665637473F3
:10430C0000526573657400506175736500436F6E80
:10431C0074696E75650053657420446F776E6C6FAD
:10432C00616420466F7263652053616D706C65002B
:10433C0053657420437573746F6D20466F7263659B
:10434C00204461746100557362203C3D0036189E18
:10435C00110B1894118618091807180518BA173676
:10436C0012E917CE11F5160816EC146E14BE139B39
:10437C0012931ADB18751AD118A91A731A711A6FBD
:10438C001A1B1A121A451AFD18E118C319E2188DD6
:10439C0019E318E4180210000800090007000400D3
:1043AC0004000F00030000000400020002000200E1
:1043BC0005000400F000010A01020306010504A532
:1043CC001465B5647FA57E6BB5687FA53600B56CAA
:1043DC007FA52800B5707FA5664CB5747FA57E01BE
:1043EC00B5407FA57257B5447FA53C43B5487FA522
:1043FC007E00B54C7FA50400B5507FA50200B554D6
:10440C007FA50200B5587FA5007EB55C7FA53C005A
:10441C00B5607FF000010A0110056BF7C5011206AB
:10442C000502080A0B0D0E0F1001F000010A152EE3
:10443C003F6A1D4859F10E4301007DF17E04013E97
:10444C004EF11C45013E2FF10B46017D00F31D067C
:10445C0005030204050508090A0B00000102040209
:00000001FF
