:10000000E0C70000FBC70000F8C70000F6C700000B
:10001000F4C70000F2C70000F0C70000EEC7000000
:10002000ECC70000EAC700000C94F521E6C7000009
:10003000E4C70000E2C70000E0C70000DEC7000020
:10004000DCC70000DAC70000D8C70000D6C7000030
:10005000D4C70000D2C70000D0C70000CEC7000040
:10006000CCC70000CAC70000C8C70000C6C7000050
:10007000C4C700000C944609C0C70000BEC70000FA
:10008000BCC70000BAC70000B8C70000B6C7000070
:10009000B4C70000B2C70000B0C70000AEC7000080
:1000A000ACC70000AAC70000A8C7000005010904EA
:1000B000A10185010901A1000930093109321600A9
:1000C000FE26FF01350046FF0395037510810209E6
:1000D000351500253F3500452E95017506810275C1
:1000E0000295018101650009330934150025FF459A
:1000F000FF7508750895028102C009361580257FB5
:1001000045FF750895018102050209BB15C0253F11
:10011000457F750895018102050919012908150017
:1001200025014501750195088102190929107501FC
:100130009508810205010939950175041500250707
:10014000463B0165148142750495018101550065A6
:1001500000050F0992A1028502099F09A009A409BF
:10016000A509A615002501350045017501950581F4
:100170000295038103099415002501350045017599
:1001800001950181020922150125283501452875AF
:100190000795018102C00921A102850109221501EB
:1001A0002528350145287508950191020925A102E8
:1001B0000926092709300931093209330934094070
:1001C0000941094209430928250C15013501450C4F
:1001D000750895019100C009500954095115002670
:1001E000FF7F350046FF7F66031055FD75109503B0
:1001F000910255006600000952150026FF003500E7
:1002000046102775089501910209531501250835F7
:100210000145087508950191020955A102050109DA
:1002200030093115002501750195029102C0050FB5
:10023000095695019102950591030957A1020B01F9
:10024000000A000B02000A0066140055FE15002685
:10025000B400350047A08C000066000075089502C8
:1002600091025500660000C0050F09A766031055EE
:10027000FD150026FF7F350046FF7F751095019123
:10028000026600005500C0050F095AA10285020947
:100290002215012528350145287508950191020987
:1002A0005B095D150026FF00350046102795029179
:1002B00002095C095E66031055FD26FF7F46FF7F3D
:1002C0007510910245006600005500C0095FA1024B
:1002D0008503092215012528350145287508950152
:1002E000910209231500250135004501750495018A
:1002F00091020958A1020B01000A000B02000A003A
:10030000750295029102C01580257F36F0D84610FF
:1003100027096075089501910236F0D84610270923
:1003200061096295029102150026FF003500461012
:10033000270963096475089502910209654610272B
:1003400095019102C0096EA10285040922150125BB
:100350002835014528750895019102097015002678
:10036000FF003500461027750895019102096F15A9
:1003700080257F36F0D846102795019102097166D5
:10038000140055FE150026FF00350047A08C000024
:100390009102097226FF7F46FF7F66031055FD75A7
:1003A00010950191026600005500C00973A10285F5
:1003B0000509221501252835014528750895019163
:1003C0000209701601FF26FF0036F0D84610277587
:1003D0001095019102C00974A10285060922150138
:1003E000252835014528750895019102097509767A
:1003F0001580257F36F0D8461027750895029102A2
:10040000C00968A102850709221501252835014583
:1004100028750895019102096C15002610273500F2
:1004200046102775109501910209691581257F35C0
:100430000046FF007508950C920201C00966A102F2
:1004400085080501093009311581257F350046FFF2
:1004500000750895029102C0050F0977A102850A6F
:1004600009221501252835014528750895019102B5
:100470000978A1020979097A097B15012503750814
:1004800095019100C0097C150026FF00350046FF4C
:10049000009102C00990A102850B092225281501AF
:1004A00035014528750895019102C00996A102857C
:1004B0000C099709980999099A099B099C15012526
:1004C00006750895019100C0097DA102850D097E80
:1004D000150026FF0035004610277508950191028A
:1004E000C0096BA102850E09221501252835014599
:1004F00028750895019102096D150026FF00350049
:1005000046FF00750895019102095166031055FDDB
:10051000150026FF7F350046FF7F7510950191027B
:100520005500660000C009ABA10285050925A1029E
:1005300009260927093009310932093309340940EC
:100540000941094209430928250C15013501450CCB
:1005500075089501B100C00501093B150026FF0192
:10056000350046FF01750A9501B1027506B101C05B
:10057000050F0989A10285060922252815013501E3
:10058000452875089501B102098BA102098C098DD6
:10059000098E250315013501450375089501B10044
:1005A000C009AC150027FFFF0000350047FFFF0022
:1005B0000075109501B100C0097FA102850709806F
:1005C000751095011500350027FFFF000047FFFF5C
:1005D0000000B102098326FF0046FF00750895015F
:1005E000B10209A909AA7501950215002501350076
:1005F0004501B10275069501B103C0C005010904AA
:10060000A10185010904A100093009310932160050
:100610000026FF03350046FF03950375108102098C
:10062000351500253F3500452E950175068102756B
:100630000295018101650009330934150025FF4544
:10064000FF7508750895028102C009361580257F5F
:1006500045FF750895018102050209BB1500253F7C
:10066000453F750895018102050919012908150002
:1006700025014501750195088102190929107501A7
:1006800095088102050109399501750415002507B2
:10069000463B016514814275049501810155006551
:1006A00000050F0992A1028502099F09A009A4096A
:1006B000A509A6150025013500450175019505819F
:1006C0000295038103099415002501350045017544
:1006D000019501810209221501252835014528755A
:1006E0000795018102C00921A10285010922150196
:1006F0002528350145287508950191020925A10293
:10070000092609270930093109320933093409401A
:100710000941094209430928250C15013501450CF9
:10072000750895019100C00950095409511500261A
:10073000FF7F350046FF7F66031055FD751095035A
:10074000910255006600000952150026FF00350091
:1007500046102775089501910209531501250835A2
:100760000145087508950191020955A10205010985
:1007700030093115002501750195029102C0050F60
:10078000095695019102950591030957A1020B01A4
:10079000000A000B02000A0066140055FE15002630
:1007A000B400350047A08C00006600007508950273
:1007B00091025500660000C0050F09A76603105599
:1007C000FD150026FF7F350046FF7F7510950191CE
:1007D000026600005500C0050F095AA102850209F2
:1007E0002215012528350145287508950191020932
:1007F0005B095D150026FF00350046102795029124
:1008000002095C095E66031055FD26FF7F46FF7FE7
:100810007510910245006600005500C0095FA102F5
:1008200085030922150125283501452875089501FC
:100830009102092315002501350045017504950134
:1008400091020958A1020B01000A000B02000A00E4
:10085000750295029102C01580257F36F0D84610AA
:1008600027096075089501910236F0D846102709CE
:1008700061096295029102150026FF0035004610BD
:1008800027096309647508950291020965461027D6
:1008900095019102C0096EA1028504092215012566
:1008A0002835014528750895019102097015002623
:1008B000FF003500461027750895019102096F1554
:1008C00080257F36F0D84610279501910209716680
:1008D000140055FE150026FF00350047A08C0000CF
:1008E0009102097226FF7F46FF7F66031055FD7552
:1008F00010950191026600005500C00973A10285A0
:10090000050922150125283501452875089501910D
:100910000209701601FF26FF0036F0D84610277531
:100920001095019102C00974A102850609221501E2
:100930002528350145287508950191020975097624
:100940001580257F36F0D84610277508950291024C
:10095000C00968A10285070922150125283501452E
:1009600028750895019102096C150026102735009D
:1009700046102775109501910209691581257F356B
:100980000046FF007508950C920201C00966A1029D
:1009900085080501093009311581257F350046FF9D
:1009A00000750895029102C0050F0977A102850A1A
:1009B0000922150125283501452875089501910260
:1009C0000978A1020979097A097B150125037508BF
:1009D00095019100C0097C150026FF00350046FFF7
:1009E000009102C00990A102850B0922252815015A
:1009F00035014528750895019102C00996A1028527
:100A00000C099709980999099A099B099C150125D0
:100A100006750895019100C0097DA102850D097E2A
:100A2000150026FF00350046102775089501910234
:100A3000C0096BA102850E09221501252835014543
:100A400028750895019102096D150026FF003500F3
:100A500046FF00750895019102095166031055FD86
:100A6000150026FF7F350046FF7F75109501910226
:100A70005500660000C009ABA10285050925A10249
:100A80000926092709300931093209330934094097
:100A90000941094209430928250C15013501450C76
:100AA00075089501B100C00501093B150026FF013D
:100AB000350046FF01750A9501B1027506B101C006
:100AC000050F0989A102850609222528150135018E
:100AD000452875089501B102098BA102098C098D81
:100AE000098E250315013501450375089501B100EF
:100AF000C009AC150027FFFF0000350047FFFF00CD
:100B00000075109501B100C0097FA1028507098019
:100B1000751095011500350027FFFF000047FFFF06
:100B20000000B102098326FF0046FF007508950109
:100B3000B10209A909AA7501950215002501350020
:100B40004501B10275069501B103C0C01201100143
:100B5000EF020108EB034E20010001020001120127
:100B60001001EF020108EB03562001000102000111
:100B700009026600030100C03209040000020300FC
:100B80000000092111010001225005070502034060
:100B9000000107058103400001080B010202020168
:100BA00000090401000102020100052400100104F3
:100BB0002402060524060102070585030800FF0933
:100BC000040200020A0000000705040210000107E9
:100BD00005830210000104030904180344006500A2
:100BE00061006E002000430061006D00650072002E
:100BF0006100000026034C00550046004100200023
:100C00004A006F00790073007400690063006B0094
:100C100020007700460046004200000020034C0000
:100C2000550046004100200057006800650065003F
:100C30006C0020007700460046004200000045722C
:100C4000726F723A20756E6B6E6F776E2065666696
:100C5000656374207479706520746F20656E6162BD
:100C60006C652F64697361626C65002053696E6501
:100C7000732064697361626C65640A002054726950
:100C8000616E676C65732064697361626C65640A88
:100C90000020436F6E7374616E74732064697361B6
:100CA000626C65640A0020537072696E6773206419
:100CB000697361626C65640A004566666563747396
:100CC0003A0A004572726F723A20756E6B6E6F77DA
:100CD0006E20636F6D6D616E64002C2064617461C1
:100CE0003D00436F6D20203D3E20436F6D6D616E72
:100CF000643D005265636569766564206461746172
:100D00003D00457870656374696E67206461746145
:100D1000206C656E3D0020203D20536574436F6E4E
:100D200074726F6C4C696E65537461746500202039
:100D30003D205365744C696E65456E636F64696EE2
:100D4000670020203D204765744C696E65456E63E1
:100D50006F64696E67004374726C526571287661C6
:100D60006C2C6964782C726571293A0053746F7029
:100D7000206D616E75616C3A002028456E61626C71
:100D80006564290A00202844697361626C656429DE
:100D90000A002046726565002053656E740020507D
:100DA0006C6179696E670A0020416C6C6F636174D5
:100DB000656400203D3E204D6964693A00446576D3
:100DC000696365204761696E3A20004F74686572F7
:100DD0002000426C6F636B20467265653A200020EC
:100DE000556E6B6E6F776E206F7065726174696F90
:100DF0006E002053746F7000205374617274536FCF
:100E00006C6F00205374617274004566666563748C
:100E1000204F7065726174696F6E3A004765745255
:100E200065706F72742050494420506F6F6C20467B
:100E3000656174757265002020627574746F6E3D13
:100E40000020207265706561743D002020593D00CE
:100E50002020583D002020647572613D00202067ED
:100E600061696E3D002020747970653D0020206925
:100E70006420203D00536574204566666563743ABE
:100E8000002C207374617475733D00437265617446
:100E900065204E657720456666656374203D3E207B
:100EA00069643D0055736220203D3E002020656E40
:100EB0006420203D00202073746172743D00202066
:100EC00069643D005365742052616D7020466F72F5
:100ED00063653A0020206D61676E69747564653DD5
:100EE00000202069643D0053657420436F6E737465
:100EF000616E7420466F7263653A002020706572DF
:100F0000696F642020203D00202070686173652097
:100F10002020203D0020206F66667365742020200D
:100F20003D0020206D61676E69747564653D002029
:100F30002069643D0053657420506572696F64696F
:100F4000633A002020636F6566662B3D0020206FAA
:100F500066667365743D002020626C6F636B203D94
:100F600000202069642020203D0053657420436FD9
:100F70006E646974696F6E3A00202066616465541E
:100F8000696D6520203D00202061747461636B549D
:100F9000696D653D0020206661646520203D00206C
:100FA0002061747461636B3D0020206964202020FF
:100FB000203D0053657420456E76656C6F70653A10
:100FC000000011241FBECFEFDAE0DEBFCDBF12E07C
:100FD000A0E0B1E0EAE4FCE402C005900D92A43D7B
:100FE000B107D9F718E0A4EDB2E001C01D92AF3B04
:100FF000B107E1F789D70C94232602C85F935FB746
:101000005F9357EE56BD4F93AF93BF93B6E0A09159
:10101000830650918406452F53955093840653B10F
:101020005295507E477069F04530B9F0423069F012
:101030004330F1F04630E9F04130E1F04430D9F08E
:101040001BC0529556955E931AC0550F4C91542B68
:101050005C935527551F5E9312C057FB550F550FD4
:101060004C91542B5C935527551F51F95E9307C043
:1010700056955695569556954C91542B5C93A09346
:101080008306BF91AF914F915F915FBF5F911895BC
:10109000DC0154E0A50F5C91509550FB5095A15098
:1010A0003C91369557955093AA0642E0340F337021
:1010B0005C91A1504C91469557955C7F532B509372
:1010C000AB0638E0430F4F70A2505C91550F550F9F
:1010D0005051507F542B5093AC063C9142E0340F5A
:1010E0003370A3954C91407F342B3295330F330FDF
:1010F00054E0A50F5C9150955695379556953795C8
:101100003093AD0656F9A3504C9145FB57F95093D7
:10111000AE06A1505C9138E0530F5F70440F551F2D
:10112000440F551F5093AF060895DC0145E0A40F0E
:101130005C91A395A3953C913873330F3295550F6D
:10114000369557954EEF340F33705093AA064C9155
:101150004770A3505C91550F469557952EEF420F5F
:101160004370550F441F550F441F532B5093AB062C
:10117000342FA2505C91A3954C914871550F440FA8
:10118000429546955795409540FB5295452F407F97
:10119000432B4093AC065F7054F9352FA3505C91FC
:1011A000507747E0A40F4C9146FB57F9505157FB3D
:1011B000550F532B5093AD06332730F9AA955C9108
:1011C000A3504C9146FB57F950954427550F441FA7
:1011D000532B5093AE06342FA2505C91A395A39548
:1011E0004C914770550F469557952EEF420F43701F
:1011F00057FB550F532B5093AF06440F40F94093C4
:10120000B0060895482F362F8827F894E09AE89A78
:1012100022271E9B2FEF51E053BD5CE956BDA89AD3
:101220002093840653E85093830678942498259855
:1012300050E05A95F1F7249A259A50918406521756
:1012400019F4A89BFACF089550918406521B250FDC
:10125000231728F444238AF7450F7AF3E7CF8395C1
:101260000895D0DF882371F050918406563151F4EF
:10127000F8945527509384065091830653955093C4
:1012800083067894089581E090E008951F920F926C
:101290000FB60F9211248F9381E08093D4028F9127
:1012A0000F900FBE0F901F901895CF93DF93EB0117
:1012B00083E085BD0E94511F8091D4028823C9F12B
:1012C0001092D4028091D502813069F0813028F0EB
:1012D000843089F08530C9F414C0809179008093FE
:1012E000D60281E005C0809179008093D70284E026
:1012F0008093D5020CC0809179008093D80285E05C
:10130000F7CF809179008093D9021092D502809115
:101310007C00887F80937C0090917C008091D50236
:101320008770892B80937C0080917A008064809301
:101330007A0081E088838091B1068430C1F52091E4
:10134000AC0630E0220F331F220F331F3070809124
:10135000AD06829586958695837090E0282B392B73
:101360008FEF90E0282739273D872C878091AE06A4
:1013700090E083709070982F88272091AF06820F9D
:10138000911D9A8389838091AE0690E08C7F907046
:10139000880F991F880F991F9C838B838091AD06BE
:1013A00080958F738B878FEF8E871F825CC08091B3
:1013B000AB0690E083709070382F22278091AA06A8
:1013C000280F311D3A8329838091AB0681FF03C02A
:1013D0003C6F3A8329838091AC06282F30E02F7030
:1013E000307046E0220F331F4A95E1F78091AB063B
:1013F00086958695280F311D3C832B838091AC0602
:1014000083FF03C03C6F3C832B832091AD06229564
:101410002695269523708091AE0690E08F77907088
:10142000880F991F880F991F820F911D9D878C87A8
:101430008091AC0682958F708E878091AD068F73F8
:1014400080528F839091AF069F73990F8091AE0663
:10145000881F8827881F980F9B878091AF0685FF7C
:1014600002C0906C9B871E821D828091D9022091C0
:10147000D80290E0821B910962E070E00E94092688
:1014800060586A878091D70288878091D6028987C1
:1014900081E090E0DF91CF9108950E94881F86E05F
:1014A0008093850683E08093810085E085BD26E0FA
:1014B0002150822F90E0FC01E655F94FE081DC01DC
:1014C000A957B94F8C918E13EC93222389F788EE9C
:1014D00093E052D67BD710BA80917A0087608093D0
:1014E0007A0080917C00806480937C0080917C00F5
:1014F000806280937C0080917A00806880937A007B
:1015000080917A00886080937A0080917A0080646C
:1015100080937A000895CF92DF92EF92FF920F931B
:101520001F93DF93CF9300D0CDB7DEB7282F6A8308
:101530006A01933049F1943030F49130A9F092303F
:1015400009F06CC00AC0913209F43DC0923209F42E
:101550003FC0943009F062C04BC0F0E7EF2EFBE0D3
:10156000FF2E06E610E05EC08091B106843029F0BF
:10157000ECE4EE2EEBE0FE2E04C07EE5E72E7BE0F1
:10158000F72E02E110E04EC0813051F0813020F0A2
:10159000823009F043C008C0E6EDFBE084910FC043
:1015A000EAEDFBE084910BC08091B106843021F418
:1015B000ECE1FCE0849103C0E4EFFBE08491082FB0
:1015C00010E07F012FC062E8E62E6BE0F62E23C00C
:1015D0008091B106843029F05CEAE52E50E0F52ECA
:1015E00004C04CEFE42E45E0F42E00E515E01AC0EF
:1015F0008A81882329F439E7E32E3BE0F32E0BC0E0
:10160000813029F09FEBE92E9BE0F92E04C081EA9E
:10161000E82E8BE0F82E09E010E004C0EE24FF2451
:1016200000E010E02983CE01019661E070E00E94A5
:101630006A20CE01029661E070E00E947520F601FA
:10164000F182E082C8010F900F90CF91DF911F913E
:101650000F91FF90EF90DF90CF90089595B1282FD4
:1016600021709E7F292B25B99BB1282F20729F7D49
:10167000292B2BB998B180789F77982B98B908952A
:1016800081EAECCF80E0EACF982F80538A3068F06F
:101690008153863010F4865F0895892F81548630F7
:1016A00010F08FEF0895892F87530895843629F419
:1016B0008091BF026095862303C08091BF02862B74
:1016C0008093BF0208950C940F150895B4C5089532
:1016D00084C50895883011F4862F63C5813011F4D4
:1016E000862F66C5853011F4862F69C5823011F4C6
:1016F000862F6CC58EE39CE00C9405200F931F93FE
:10170000DF93CF930F92CDB7DEB789EB9CE00E94B9
:10171000ED1F19828E010F5F1F4F02C00E94F22041
:10172000C8010AD68823D1F780919306882321F037
:1017300086EA9CE00E94ED1F80919406882321F0A8
:1017400081E99CE00E94ED1F80919506882321F09D
:101750008CE79CE00E94ED1F80919606882321F083
:101760008BE69CE00E94ED1F0F90CF91DF911F91BF
:101770000F910895EF92FF920F931F93DF93CF93F2
:101780000F92CDB7DEB789838B017A0182EE9CE0A0
:101790000E94ED1FCE01019661E070E00E946A2078
:1017A0008AED9CE00E94ED1FC801B7010E947520E0
:1017B0008981843611F0843421F4F801608176DF68
:1017C0002AC08D3621F4C801B70180DF24C08537D7
:1017D00021F4C801B70177DF1EC0843721F4F80176
:1017E000808160E005C0843529F4F801808161E0E2
:1017F00071DF11C0853621F4F801808160E005C0F9
:10180000853429F4F801808161E062DF04C083EC53
:101810009CE00E9405200F90CF91DF911F910F91C6
:10182000FF90EF9008951F93DF93CF930F92CDB762
:10183000DEB7182F69838091BE020E94CA1F8823D9
:1018400051F083EF9CE00E94ED1FCE01019661E014
:1018500070E00E947520E091DD02F0E0E252FD4F61
:10186000898180838091DD028F5F8093DD0290917A
:10187000DD028091DB02981758F04091DB02812F46
:101880006EED72E050E076DF1092DC021092DD0225
:101890000F90CF91DF911F9108951F93DF93CF9306
:1018A0000F92CDB7DEB789838091DC028823E9F4FB
:1018B0008091BE020E94CA1F882331F0CE0101969A
:1018C00061E070E00E9475209981892F81528A35EC
:1018D00008F068C09C3611F411DF64C09093DC02FC
:1018E000109207031092DB025DC01091BE02812F9F
:1018F0000E94CA1F882331F0CE01019661E070E09A
:101900000E946A2080910703882371F48981BCDEDC
:10191000982F8F3F09F446C081E08093070392958A
:10192000907F9093DB023EC0809107038130E9F401
:101930008981AADE982F8F3FA9F182E08093070367
:101940008091DB02890F8093DB02812F0E94CA1FE6
:10195000882341F182E09DE00E94ED1F8BED92E033
:1019600061E070E00E9475201DC089818DDE982F96
:101970008F3FC1F0809107038F5F809307038091B1
:10198000070380FF05C09295907F909306030AC0DD
:1019900080910603890F809306038091DC02609199
:1019A000060341DF0F90CF91DF911F910895AF9211
:1019B000BF92CF92DF92EF92FF920F931F93DF932C
:1019C000CF93CDB7DEB7C058D0400FB6F894DEBF86
:1019D0000FBECDBF1091B608143009F047C00E9469
:1019E000F2201093E9008091E80082FF3FC081EA75
:1019F00035DECC24DD245E010894A11CB11C0EC090
:101A00000894C11CD11CC80161E070E040E050E0C6
:101A10000E94CF230F5F1F4F853091F32091F30079
:101A20008091F200F22EEE2490E08E299F29892BDE
:101A300041F080E8C816D10420F485010C0D1D1D6D
:101A4000DFCF8091E8008B778093E8008E010F5FF5
:101A50001F4F7801EC0CFD1C04C0F80181918F012F
:101A60001CDF0E151F05C9F780E0F8DDC058DF4FF9
:101A70000FB6F894DEBF0FBECDBFCF91DF911F919F
:101A80000F91FF90EF90DF90CF90BF90AF900895AF
:101A90006F927F928F929F92AF92BF92DF92EF925E
:101AA000FF920F931F93DF93CF93CDB7DEB7C05450
:101AB000D0400FB6F894DEBF0FBECDBF8091B60800
:101AC000843009F086C081E08093E9008091E800CD
:101AD00080FF13C0809100018E010F5F1F4FB8017E
:101AE000E4DBC8016FE070E040E050E00E94212498
:101AF0008091E8008E778093E80082E08093E9008F
:101B00008091E80082FF65C081EAA8DDDD245E01E6
:101B10000894A11CB11C22E0622E712C6C0E7D1E5B
:101B200090EA892E9FE0992E40C0C50161E070E0E7
:101B300040E050E00E94CF238530B9F3D394E9818F
:101B4000F0E0EE0FFF1FEC50FE4F008111810150BD
:101B50001040C8018D0D911D80349105A8F000E959
:101B600011E080E07BDD88EE93E0F8013197F1F73A
:101B70000197D9F781EA72DD88EE93E0F801319799
:101B8000F1F70197D9F7EDCFC301B80140E050E07C
:101B90000E94CF238530C1F3D00E0F5F1F4FC501C8
:101BA000B8013DD7C4010197F1F72091F30080916E
:101BB000F200F22EEE2490E08E299F29892B21F04D
:101BC0008FE38D1508F0B1CF8091E8008B7780937B
:101BD000E800C05CDF4F0FB6F894DEBF0FBECDBF8C
:101BE000CF91DF911F910F91FF90EF90DF90BF9009
:101BF000AF909F908F907F906F900895EF92FF929B
:101C00000F931F93DF93CF93CDB7DEB764970FB6D3
:101C1000F894DEBF0FBECDBF8091BB089091BC0889
:101C2000019719F0EE24FF2404C035E1E32E31E0E2
:101C3000F32E0091BE02802F0E94CA1F8823B1F0AC
:101C400086E59DE00E94ED1F89EB98E062E070E080
:101C50000E946A208BEB98E062E070E00E946A20AC
:101C600088EB98E061E070E00E9475208091B808F0
:101C7000803209F49AC0813230F4813059F08930D1
:101C800009F0C4C032C0813209F473C0823209F055
:101C9000BDC0A8C0802F0E94CA1F882321F081E008
:101CA00091E00E9427208091B708813A09F0AEC0E8
:101CB000D5DC8091B9089091BA0823E0873092076B
:101CC00031F48E010F5F1F4FC80169D540C08E01EE
:101CD0000A5F1F4FB801E9DA8091E800877F80939F
:101CE000E800C8016FE070E03AC0802F0E94CA1F70
:101CF000882321F08BE091E00E9427208091B70893
:101D0000813209F083C081EAA9DC8091E800877FF5
:101D10008093E8008E010A5F1F4F6091BD087091AB
:101D2000BE08C8010E9421230E9446218091B90863
:101D30009091BA0885509340C9F480ED97E00197DF
:101D4000F1F7C8018E010F5F1F4FB801F8D58091E0
:101D5000E800877F8093E800C80165E070E00E949A
:101D6000BB228091E8008B778093E80080E076DCEE
:101D70004DC0802F0E94CA1F882321F082E49DE07D
:101D80000E94ED1F8091B708813A09F03FC0809111
:101D9000E800877F8093E800C70167E070E00E9459
:101DA000BB228091E8008B771AC0802F0E94CA1F47
:101DB000882321F08EE29DE00E94ED1F8091B708FC
:101DC000813221F58091E800877F8093E800C70188
:101DD00067E070E00E9421238091E8008E77809375
:101DE000E80014C0802F0E94CA1F882321F086E1DA
:101DF0009DE00E94ED1F8091B708813239F48091F7
:101E0000E800877F8093E8000E94462164960FB621
:101E1000F894DEBF0FBECDBFCF91DF911F910F9120
:101E2000FF90EF900895CF92DF92EF92FF920F9381
:101E30001F9381E061EC42E30E941121082F82E0B0
:101E400060EC42E30E941121C82E83E061E842E188
:101E50000E941121E82E84E060E842E10E941121F5
:101E600010E0DD240C211D2101701070FF240E21D3
:101E70001F2120E030E0012B11F021E030E0082F9D
:101E800010E00223132385E061EC42E00E9411215F
:101E9000109215011092160110921701109218015C
:101EA00020E030E0012B11F021E030E090E0282329
:101EB0003923232B11F481EA01C080E0CFDB1F918D
:101EC0000F91FF90EF90DF90CF90089584B7877FB8
:101ED00084BF88E10FB6F894809360001092600090
:101EE0000FBE80E090E020E80FB6F89420936100E8
:101EF000809361000FBE209A2898559A5D983F9A6A
:101F00004798CBDA0C94DD21E1DF80E0A7DB789401
:101F10000AC081EAA3DB8CE291E02ED180E09EDB57
:101F20008CE291E029D1AFD9892B99F3B1DD0E94E0
:101F3000F2203DDD0E94F2200E94E2250E94F22064
:101F4000F2CF94E2899FC001112483559E4F909354
:101F50000903809308030895843180F4282F30E02A
:101F600088E290E0289FF001299FF00D389FF00D46
:101F70001124E65FFC4F8081826080830895282FC2
:101F80008431F8F4A82FB0E088E290E0A89FF00137
:101F9000A99FF00DB89FF00D1124E65FFC4F8081E2
:101FA0008D7F8083AE56B94F15968C91882349F466
:101FB000E0910803F09109030484F585E02D822F58
:101FC000099508951F9311E0812FD9DF1F5F143108
:101FD000D9F71F910895482F8431E8F4282F30E075
:101FE00088E290E0289FF001299FF00D389FF00DC6
:101FF0001124E65FFC4F10828091F501481710F420
:102000004093F501E0910803F09109030684F785F8
:10201000E02D842F09950895482F8431C0F4282F8E
:1020200030E088E290E0289FF001299FF00D389F72
:10203000F00D1124E65FFC4F8081882341F0E8E237
:102040004E9FF0011124E95EFC4F818108958FEFCE
:1020500008950F931F93382FFB01808191810817FA
:10206000190711F480E010C01183008332FF0BC008
:10207000E0910803F09109030088F189E02D842F95
:10208000622FA801099581E01F910F9108950F9388
:10209000982FFB018081081711F480E010C00083A5
:1020A00092FF0CC0E0910803F09109030088F189C8
:1020B000E02D842F622F402F50E0099581E00F9191
:1020C00008952FEF8F3F920719F420E030E008C009
:1020D0009C0130703695279580709F77280F391FA7
:1020E000C90108952FEF8F3F920719F420E030E0E7
:1020F00009C09C01220F331F20703F778F779070AB
:10210000280F391FC9010895282F332727FD30953F
:1021100087FF02C020583048C9010895BC0180EDF6
:1021200097E00E94F5256F5F7F4F76956795CB010D
:10213000089570E0992787FD90959C01629FC001EA
:10214000639F900D729F900D11246FEF70E00E94BD
:102150000926862F089520E304C0922F9A95F1F75F
:1021600081508823D1F708952498259885E0F3DFDE
:10217000249A259A81E0EFCF20EA3FE004C0A89599
:10218000F9013197F1F701974FEF8F3F9407B9F7B6
:102190000895982F8091C80085FFFCCF9093CE00C2
:1021A000089590E0882309F491E0909393060895B0
:1021B00090E0882309F491E090939406089590E0CC
:1021C000882309F491E090939506089590E0882380
:1021D00009F491E0909396060895DF93CF930F92C0
:1021E000CDB7DEB78983282F30E080E0662309F47D
:1021F00081E0F901EE56F94F858388E290E0289F4F
:10220000F001299FF00D389FF00D1124E65FFC4F7F
:102210008081823061F48CE69DE00E94ED1FCE014A
:10222000019661E070E00E9475208981A8DE0F9020
:10223000CF91DF910895EF92FF920F931F93CF9369
:10224000DF937C018B018091BF02882341F083EBF7
:102250009DE00E94ED1FC701B8010E947520C0E0FB
:10226000D0E006C0F701EC0FFD1F808192DF2196C0
:10227000C017D107B8F3DF91CF911F910F91FF9055
:10228000EF900895FF920F931F93DF93CF9300D0A9
:102290000F92CDB7DEB78C01F62EE0910803F091D6
:1022A00009030280F381E02DCE0101960995698131
:1022B00070E0C1DFC8016F2D70E0BDDF1A8206C07B
:1022C000F80181918F01980F9A83FA949A81FF20E7
:1022D000B9F791959F779A83CE01029661E070E0FD
:1022E000AADF87EF8B83CE01039661E070E0A3DF66
:1022F0000F900F900F90CF91DF911F910F91FF9052
:1023000008950F931F938C018DEB9DE00E94ED1FAC
:10231000C801019661E070E00E947520E091080319
:10232000F09109030488F589E02DD80111968C916C
:1023300009951F910F9108951F93CF93DF93EC019F
:102340008881882311F482E088831881133110F08A
:1023500080E038C0CE0161E070E00E946A20212F49
:1023600030E088E290E0289FF001299FF00D389F2F
:10237000F00D1124E65FFC4FE081E13019F488EAAA
:102380009DE00CC0E23019F48EE99DE007C0E43016
:1023900019F488E99DE002C082E99DE00E94ED1FEA
:1023A000E881F0E0EE56F94F8581882319F085E841
:1023B0009DE002C089E79DE00E94ED1F88818F5F4C
:1023C000888381E0DF91CF911F91089522E936E063
:1023D000C90160E070E048E150E00E941C26539A79
:1023E0001092C8008FE190E09093CD008093CC00D4
:1023F00086E88093CA0088E08093C9001092CE00DE
:102400002AE033E0C90160E070E040E253E00E945E
:102410001C262FE836E0C90160E070E043E050E0A0
:102420000E941C2682E08093F501E0910803F09160
:1024300009030190F081E02D0995089582E08093D1
:10244000F5012AE033E0C90160E070E040E253E0CA
:102450000C941C268091F501833111F440E038C0C2
:102460004091F5014F5F4093F501415028E230E083
:1024700009C08091F5018331A0F48091F5018F5F4F
:102480008093F5018091F50190E0829FF001839F98
:10249000F00D929FF00D1124E65FFC4F80818823A0
:1024A00041F7242F30E088E290E0289FF001299F37
:1024B000F00D389FF00D1124DF01A65FBC4F81E0C5
:1024C0008C93E95EFC4F8BE1DF011D928A95E9F761
:1024D000842F08958CE191E00C9427200F931F9393
:1024E000CF93DF93EC01198182E080938F06809176
:1024F000900684608093900680919006806180931E
:10250000900610929106E0910803F091090304806F
:10251000F581E02D812F0995082F133041F11430FA
:1025200030F4113061F0123009F04EC013C0153094
:10253000B9F1153028F1163009F046C03BC08DE2E4
:1025400091E00E942720002309F44AC08091900660
:1025500082600AC08EE391E00E942720002309F4E4
:102560003FC0809190068D7F8093900639C080E5B2
:1025700091E00E942720002399F11092910630C02B
:1025800081E691E00E942720002351F18BE490E046
:10259000F3DD54DF8091900682608093900610C036
:1025A00087E691E00E9427200023D1F080919006D9
:1025B0008160DACF8DE691E00E942720002381F030
:1025C000809190068E7FD0CF107C51F08BEC9DE0F7
:1025D0000E94ED1FCE01019661E070E00E9475201F
:1025E000DF91CF911F910F910895DF93CF930F92B9
:1025F000CDB7DEB7FC01818189838091BE020E9444
:10260000CA1F882351F082ED9DE00E94ED1FCE018C
:10261000019661E070E00E94752089818F3F59F436
:102620000DDFE0910803F09109030684F785E02DA2
:102630008FE7099501C0CFDC0F90CF91DF9108950E
:102640008091BE020E94CA1F882321F086E791E094
:102650000C94272008958091BE020E94CA1F8823EF
:1026600021F080E991E00C9427200895EF92FF92E9
:102670001F93DF93CF930F92CDB7DEB77C01FC01A0
:10268000818189831091BE02812F0E94CA1F8823F5
:1026900051F08AE09EE00E94ED1FCE01019661E0BC
:1026A00070E00E946A2089818F3F11F48FE789834F
:1026B000F70182818130F1F4812F0E94CA1F8823A3
:1026C00021F083E09EE00E940520F701818144DC37
:1026D0009981E92FF0E0EE56F94F8581882309F0C2
:1026E00057C0E0910803F09109030284F385E02DBF
:1026F000892F2EC0823071F5812F0E94CA1F882336
:1027000021F088EF9DE00E9405205CDCE981F0E08B
:10271000EE56F94F8581882349F4E0910803F09142
:1027200009030484F585E02D8FE70995F701818180
:1027300013DCE981F0E0EE56F94F8581882341F5FD
:10274000E0910803F09109030284F385E02D8FE7FF
:1027500009951EC0833069F4812F0E94CA1F882307
:1027600021F082EF9DE00E940520F701818107DCC6
:102770000FC0812F0E94CA1F882351F08FED9DE06A
:102780000E940520C701029661E070E00E9475205A
:102790000F90CF91DF911F91FF90EF900895CF930D
:1027A000DF93EC018091BE020E94CA1F882321F0B2
:1027B0008CE19EE00E94052041DE87E088838FEF58
:1027C0009FEF9A83898380E18B8383E08C83DF9101
:1027D000CF910895EF92FF920F931F93CF93DF93C2
:1027E000EC01998188E2989F700111248AE093E0BE
:1027F000E80EF91E8091BE020E94CA1F882309F4C8
:1028000065C085E79EE00E94ED1FCE0160E170E0AB
:102810000E9475208DE69EE00E94ED1FCE0101967C
:1028200061E070E00E94752085E69EE00E94ED1F49
:10283000CE01029661E070E00E9475208DE59EE079
:102840000E94ED1FCE01099661E070E00E947520A4
:1028500085E59EE00E94ED1FCE01039662E070E0E8
:102860000E9475208B858823A1F080E59EE00E9460
:10287000ED1FCE010C9661E070E00E9475208BE4A4
:102880009EE00E94ED1FCE010D9661E070E00E9477
:1028900075208D819E81892B51F081E49EE00E94FC
:1028A000ED1FCE01059662E070E00E9475208A85DA
:1028B000882351F087E39EE00E94ED1FCE010A9627
:1028C00061E070E00E9475200E94F2208701035FA2
:1028D0001F4F8B819C81EFEF8F3F9E0719F420E003
:1028E00030E002C0EEDB9C01F7018081E09108033B
:1028F000F09109030D5F1F4F0288F389E02DB801A5
:1029000049810995E0910803F091090302A0F3A120
:10291000E02DCE01B7010995682FF701808182FD76
:1029200007C0C7010D96AEDCF7018081846080830B
:10293000DF91CF911F910F91FF90EF900895FF923B
:102940000F931F93CF93DF938C01EB0186E0888375
:10295000E0910803F0910903D80111968C9106804B
:10296000F781E02D81500995F82EE0910803F09150
:1029700009030084F185E02D0995882311F019825F
:1029800002C068DD89839981992319F482E08A83E2
:1029900015C081E08A83E8E29E9FF0011124E65F82
:1029A000FC4FF686A0910803B091090356962D912D
:1029B0003C915797C801BF01F90109958FEF9FEF2F
:1029C0009C838B838091BE020E94CA1F8823B1F032
:1029D0008BE89EE00E94ED1FCE01019661E070E061
:1029E0000E946A2081E89EE00E94ED1FCE010296BF
:1029F00061E070E00E9475200E94F22086EA91E07A
:102A00006881AE0125E030E00E94842085E090E0FE
:102A1000B3DBDF91CF911F910F91FF9008950F933A
:102A20001F93DF93CF9300D000D00F92CDB7DEB7C6
:102A30008C019B01289A5D9A479A84EA9EE066EF92
:102A400071E0A8010E94A720F80191818081873060
:102A500009F473C08830A8F48330E9F1843030F48D
:102A6000813041F1823009F082C027C0853009F4FD
:102A70004AC0E0910803F0910903863008F051C084
:102A800038C08C3009F465C08D3050F48A3009F4B8
:102A90005AC08B3008F05AC0883009F068C050C066
:102AA0008E3009F45CC08E3008F456C08F3009F0C7
:102AB0005EC058C0C8018EDE5AC0E0910803F09194
:102AC000090368E2969FB0011124665F7C4F008C79
:102AD000F18DE02D2FC0E0910803F091090368E229
:102AE000969FB0011124665F7C4F028CF38DE02D20
:102AF00021C068E2969FB0011124665F7C4F048C70
:102B0000F58DE02D17C0E0910803F091090368E20C
:102B1000969FB0011124665F7C4F068CF78DE02DE7
:102B200009C068E2969FB0011124665F7C4F00A047
:102B3000F1A1E02DC80109951AC0C8018CDD17C0AC
:102B4000C8017EDD14C0C80191DD11C0C8014DDD92
:102B50000EC0C801C3DC0BC0C801D3DB08C0C8016C
:102B6000B9DC05C0C801BE016F5F7F4FE8DE289861
:102B70005D9847980F900F900F900F900F90CF9106
:102B8000DF911F910F9108958C3010F080E008952F
:102B9000E82FF0E0E258FD4F80810895FC0185E0C8
:102BA000808384E192E0089590E0880F991F662366
:102BB00031F08C549F4F68E671E00E94F5259C012E
:102BC00020783170220F331F8F779070280F391FB4
:102BD000C9010895282F8FEF689FC0011124622F2B
:102BE00070E00E94F525CB016F3F710519F010F0E0
:102BF0008FE70895969587958F770895CF93DF9304
:102C0000EC01DB01FB013D962FE7218B81E090E099
:102C1000968B858B1686108A1786148A138A128AD9
:102C200021871682158284E690E09387828783E26B
:102C30001D968C931D97228380E19EE4958784875F
:102C40008981813019F4128E118E04C081E091E0E7
:102C5000928F818F8981883028F4823030F48130DE
:102C600091F519C08C3078F527C0FD0131968FEFB2
:102C70009FEF12969C938E931197938382832FEFED
:102C8000248325831086178281E090E092878187D4
:102C90001386268318C0FD0131968FEF9FEF1296A1
:102CA0009C938E931197938382838FEF8483858384
:102CB00017821086868307C0FD0131968FEF8283CD
:102CC00011961C921182DF91CF9108950F931F935B
:102CD000890120E4BED91F910F910895AF92BF9250
:102CE000CF92DF92EF92FF920F931F93CF93DF93D8
:102CF0006C01A62EEC012D96FC013196842F9927AC
:102D000087FD909547FD06C080549040E82EEE0C5C
:102D10004FE707C00196880F991F482F415870E868
:102D2000E72EB42EBE188385882311F0E42E4B19AC
:102D3000F601F0806796842FE7D98C018F2DBE01B4
:102D40004A2D24E786D9F601F08022968E2DDCD913
:102D50008C018F2DBE014A2D28E77BD98B2DDF9169
:102D6000CF911F910F91FF90EF90DF90CF90BF9088
:102D7000AF900895009759F46A31710518F464E62C
:102D800070E007C0660F771F660F771F02C0C6D9B5
:102D9000BC01CB0108957F928F929F92AF92BF9218
:102DA000CF92DF92EF92FF920F931F93CF93DF9317
:102DB0005C01EB01DC011196EC9011972DE0C22E25
:102DC000D12CC60ED71E1A968C918F3F19F420E095
:102DD00030E007C021E030E002C0220F331F8A95A7
:102DE000E2F78881B6016B5F7F4F8901007811702F
:102DF000000F111F2F773070020F131F4E2D24E488
:102E000028D9F5018281883030F4823058F481303D
:102E100009F0D4C009C08B3008F47EC08B3009F0B3
:102E2000CDC0A3C0772406C0D5011C968C9189879C
:102E3000772473944E010894811C911C8881E9E0E9
:102E4000F0E0CE0EDF1ED50119960C910695B60165
:102E50004E2D2CE41CD9F880EEEFFFEFCE0EDF1ED6
:102E6000D5011C968C9160E09FDE8C018F2DB60100
:102E7000E9EFFFEFCE0EDF1E4E2D28E4EAD8D50194
:102E800013968D919C9114979A83898313968D91B3
:102E90009C911497BFEF8F3F9B07A9F0F40122810B
:102EA0003381FFEF2F3F3F0771F02817390728F4D0
:102EB000821B930B06D98C0108C0D60113960D9185
:102EC0001C91149702C000E010E08881B6016E5E8C
:102ED0007F4F4E2D20E6BDD8772009F06FC0FE0150
:102EE0003196D50117968D919C911897908787837D
:102EF0006185728517968D919C9118973BDFF880BC
:102F0000EAE0F0E0CE0EDF1EEDD88C018F2DB60189
:102F10004E2D20E59ED852C06E010894C11CD11CD4
:102F2000D50119968C911997F6018283F8808981D1
:102F300019966C91FED8E8D88C018F2D6496BE014D
:102F400064974E2D28E485D8F8806696D6011196B0
:102F50008C91F5016185EDD8D7D88C018F2DBE01FC
:102F60004E2D2CE476D88FE02AC06E010894C11C47
:102F7000D11CD50119968C911997F6018283F8809E
:102F8000898119966C91D5D8BFD88C018F2D649604
:102F9000BE0164974E2D28E45CD8F8806696D60171
:102FA00011968C91F5016185C4D8AED88C018F2D16
:102FB000BE014E2D2CE44DD88BE001C08BE190E09A
:102FC000DF91CF911F910F91FF90EF90DF90CF9005
:102FD000BF90AF909F908F907F9008957F928F9237
:102FE0009F92AF92BF92CF92DF92EF92FF920F9398
:102FF0001F93DF93CF930F92CDB7DEB78C014B01B8
:10300000FC0171808091BE02C5D7882341F1F8018F
:103010008181898384EC9EE0E0D7C80164E070E0A0
:103020000E9475208EEB9EE0D8D7CE01019661E01C
:1030300070E00E94752085EB9EE0CFD7C801029614
:1030400061E070E00E9475208CEA9EE0C6D7C8015E
:10305000039661E070E00E9475200E94F2203DE03E
:10306000E32EF12CE80CF91C54010894A11CB11CAE
:10307000F8012281938192173CF481E0F501838766
:10308000F801D280838105C0F5011386F801D38051
:103090008281D81A892F992787FD9095332727FD9C
:1030A0003095820F931F62E070E00E940926462F40
:1030B000C401672D13DEC82EF401108121E130E038
:1030C000E20EF31E6D2D86DD082F812FB701EFEE86
:1030D000FFEFEE0EFF1E472D28E60E944710F50178
:1030E0008681C81619F1C682F401108124E130E00E
:1030F000E20EF31E8C2DF50165816CDD082F812F0A
:10310000B701472D2CE60E944710F40110812AEFE9
:103110003FEFE20EF31E8C2DF50164815BDD082F7D
:10312000812FB701472D24E60E9447100F90CF91C1
:10313000DF911F910F91FF90EF90DF90CF90BF90A4
:10314000AF909F908F907F9008957F928F929F92E3
:10315000AF92BF92CF92DF92EF92FF920F931F93A5
:10316000DF93CF930F92CDB7DEB77C015B01FC01FB
:10317000818189838091BE020DD78823C9F087EEB3
:103180009EE02BD7C70164E070E0AFD781EE9EE0F0
:1031900024D7CE01019661E070E0A7D784ED9EE0D0
:1031A0001CD7C701029662E070E09FD70E94F22010
:1031B0006DE0C62ED12CCA0CDB1C45010894811C85
:1031C000911CF7018281F4018783F7010281138149
:1031D00017FF02C000951095159507950F77F5011B
:1031E0008081B6016F5E7F4F498128E60E944710BB
:1031F000F501708047E0A42EB12CAC0CBD1C60E042
:10320000F7018281938197FD61E0F4018085CCDC38
:103210008C01872DB501498128E40E9429108FE790
:1032200090E0F601908F878B128E118E0F90CF91C8
:10323000DF911F910F91FF90EF90DF90CF90BF90A3
:10324000AF909F908F907F9008954F925F926F9272
:103250007F928F929F92AF92BF92CF92DF92EF9226
:10326000FF920F931F93DF93CF930F92CDB7DEB7EB
:103270003C012B01FC01818189838091BE028AD6A9
:10328000882381F185E39FE0A8D6C30167E070E061
:103290002CD78FE29FE0A1D6CE01019661E070E0CD
:1032A00024D782E29FE099D6C301029661E070E0E4
:1032B0001CD785E19FE091D6C301039661E070E0E1
:1032C00014D788E09FE089D6C301049661E070E0DE
:1032D0000CD78BEF9EE081D6C301059662E070E0CB
:1032E00004D780D77DE0A72EB12CA40CB51C4201D9
:1032F0000894811C911CF301858196818E30910583
:1033000018F40DE410E00AC0F3E0883E9F0718F0BF
:1033100001E010E003C00E948E108C01F4011287BE
:10332000018787819085B80125DD6C01F201F0806D
:1033300025E130E0A20EB31EE980C8010E947210A0
:103340008C018F2DB5014E2D20E70E942910F2012E
:10335000F08025EF3FEFA20EB31EE980C6010E9468
:1033600072108C018F2DB501E6EFFFEFAE0EBF1E80
:103370004E2D20E50E942910F201808182FD2EC091
:10338000F5018181823019F081818330E1F4F3010C
:103390008481829586958770853028F4833068F41F
:1033A000882329F006C0873050F08730B9F482E0D6
:1033B00001C083E0F50181830FC082E001C083E09A
:1033C000F501818305C0F301848181548F3720F496
:1033D00081E0F401838702C0F4011386C201698190
:1033E000F30143817BDCE82EF201108121E130E022
:1033F000A20EB31EF3016281EDDB082F812FB50110
:103400002FEE3FEFA20EB31E498128E60E9447101F
:10341000F4018681E81619F1E682F201108124E1B7
:1034200030E0A20EB31E8E2DF4016581D3DB082F90
:10343000812FB50149812CE60E944710F2011081CD
:103440002AEF3FEFA20EB31E8E2DF4016481C2DB82
:10345000082F812FB501498124E60E9447100F9063
:10346000CF91DF911F910F91FF90EF90DF90CF9060
:10347000BF90AF909F908F907F906F905F904F9094
:1034800008958F929F92AF92BF92CF92DF92EF9268
:10349000FF920F931F93DF93CF930F92CDB7DEB7B9
:1034A0005C016B01FC0181818983FDE0EF2EF12C31
:1034B000E60EF71E8B010F5F1F4F8091BE026AD58B
:1034C000882341F18AE69FE088D5C50169E070E074
:1034D0000CD681E69FE081D5CE01019661E070E0D7
:1034E00004D687E59FE079D5C501029661E070E0DA
:1034F000FCD58DE49FE071D5C501039661E070E0D5
:10350000F4D583E49FE069D5C501049661E070E0DD
:10351000ECD568D6F5018481F80162810E9499108A
:10352000282FF70181818D3008F48AC0803120F086
:10353000803109F085C05CC0EDE08E2E912C8C0CA2
:103540009D1CF50182819481E980882331F5F60183
:103550009183F08084E190E0C80ED91E822F0E94F2
:1035600084108C018F2DB601ECEEFFEFCE0EDF1E26
:103570004E2D28E40E942910F601F08028E130E069
:10358000C20ED31EE980F50183810E9484108C0154
:103590008F2DB6014E2D20E551C0F8019183F60123
:1035A000F08086E190E0C80ED91E822F0E94841020
:1035B0008C018F2DB601EAEEFFEFCE0EDF1E4E2DF1
:1035C0002CE40E942910F5018381803819F40FE75B
:1035D00010E004C081950E9484108C01F601808166
:1035E0002DE030E0820E931EB401498124E526C00F
:1035F000F50182819481E980882381F4F601918329
:10360000F08084E190E0C80ED91E822F0E948410C1
:103610008C018F2DB6014E2D28E410C0F801918346
:10362000F601F08086E190E0C80ED91E822F0E943C
:1036300084108C018F2DB6014E2D2CE40E94291090
:103640000F90CF91DF911F910F91FF90EF90DF903E
:10365000CF90BF90AF909F908F9008956F927F9280
:103660008F929F92AF92BF92CF92DF92EF92FF9292
:103670000F931F93DF93CF930F92CDB7DEB75C010B
:103680004B01FC01818189838091BE0283D4882310
:1036900081F183EB9FE0A1D4C50168E070E025D5FE
:1036A00089EA9FE09AD4CE01019661E070E01DD5D1
:1036B0008FE99FE092D4C501029661E070E015D5D4
:1036C00085E99FE08AD4C501039661E070E00DD5DD
:1036D00087E89FE082D4C501049662E070E005D5DA
:1036E00089E79FE07AD4C501069662E070E0FDD4D8
:1036F00079D5ADE0CA2ED12CC80CD91C3401089460
:10370000611C711CF5018281F3018483F5018381C1
:10371000F3018583F50126813781F3013383228309
:10372000F501868197818F5F9F4F19F400E010E0CB
:1037300008C0F40181819281821B930B0E94611069
:103740008C01F401808122E130E0C20ED31EB6016B
:10375000498120E60E942910F401F0802DEF3FEF0F
:10376000C20ED31EE980F501848195810E9461100B
:103770008C018F2DB6014E2D2CE50E942910F401ED
:10378000108125E030E0C20ED31EF3018681F501E1
:10379000638120DA082F812FB60149812CE60E942F
:1037A0004710F40110812AEF3FEFC20ED31EF30140
:1037B0008681F50162810EDA082F812FB6014981D9
:1037C00024E60E9447100F90CF91DF911F910F9137
:1037D000FF90EF90DF90CF90BF90AF909F908F9031
:1037E0007F906F900895EF92FF920F931F93DF9356
:1037F000CF9300D00F92CDB7DEB78A0195EB9983B6
:103800006A838B837E010894E11CF11CC70163E08D
:1038100070E00E941B1185EA8983802F8F778A834D
:1038200000701F771B83C70163E070E00E941B11CB
:103830000F900F900F90CF91DF911F910F91FF90FC
:10384000EF900895482F46958FE76CE750E0CBCF77
:10385000DF93CF9300D00F92CDB7DEB795EB99836E
:103860006A838B83CE01019663E070E00E941B1196
:103870000F900F900F90CF91DF91089560E1E8CF06
:1038800060E3E6CF60E2E4CFDF93CF9300D0CDB723
:10389000DEB7E82F8150863010F080E00EC085EC56
:1038A0008983F0E0E85EFD4F80818A83CE01019636
:1038B00062E070E00E941B1181E00F900F90CF91A9
:1038C000DF9108951F93182F06C00E94B4108AE05C
:1038D0000E94AB1011501123C1F71F91089584E687
:1038E00090E00E94BC100E94B41087E090E00E941B
:1038F000BC1084E0E7DF83E290E00E94BC1083E02C
:10390000E1DF8EE090E00E94BC1082E0DBDF8EE41D
:1039100090E00E94BC1082E0D5DF84E090E00E943D
:10392000BC1083E0CFDF8BE390E00E94BC1082E00C
:10393000C9DF8CE792E062E070E00E941B1184E135
:1039400090E00E94BC1083E792E069E070E00E9482
:103950001B1189E390E00E94BC1080E492E063E3D5
:1039600070E00E941B118FE192E061E270E00E9422
:103970001B1184E089DF86E490E00C94BC10CF92A8
:10398000DF92EF92FF920F931F9300E0FF24EE244B
:10399000DD24CC2412E08C3060F48A30B8F4873017
:1039A00028F4853098F48230D1F410C08830B9F40E
:1039B0000DC08F3089F0803128F48D3049F08E3081
:1039C00071F408C0803151F0823149F40F5F07C0B3
:1039D000F39405C0E39403C0D39401C0C394812F32
:1039E0000E940C101F5F1531B1F60B3058F482E0C5
:1039F0008F1540F08E1530F08D1520F080E092E0AC
:103A00009C1508F481E01F910F91FF90EF90DF90DB
:103A1000CF9008958C3010F080E00895E82FF0E00A
:103A2000E155FD4F80810895FC0185E080838AE89F
:103A300092E00895089508950895FC0182818830E8
:103A400028F4823040F4813041F409C08B3048F0D2
:103A50008B3019F408C083E107C080E005C08FE017
:103A600003C08EE001C087E090E00895CF93DF931C
:103A7000EC01FB01DB011D9680E285879FE7129632
:103A80009C93129715961C9215978981883030F473
:103A9000823058F4813009F076C040C08B3008F491
:103AA00054C08B3009F06FC06BC080E415968C93C6
:103AB000159716969C93169719969C9319971B9693
:103AC0001C921E921A971C969C931C971F969C936F
:103AD0001F978EE352968C9352978981823059F4C6
:103AE00018961C921E9217978EE69EE11E969C9346
:103AF0008E931D970EC080E090E418969C938E9351
:103B0000179785E692E11E969C938E931D9784E706
:103B100093E051969C938E93509735C016969C9344
:103B2000169717969C93179719961C921E921897A2
:103B30001A969C931A971C961C921E921B971D9680
:103B40009C931D971E961C921EC080E09DE71796C1
:103B50009C938E9316979EE318969C9318978FE3E9
:103B600019968C9319971A969C931A971B968C9377
:103B70001B978DE790E01D969C938E931C9703C036
:103B80008EE716968C93DF91CF910895DF92EF9296
:103B9000FF920F931F93CF93DF93FC017B01D180A2
:103BA000EB012D968281938197FD06C095958795AF
:103BB000082F0F7710E007C0809590959595879511
:103BC000082F0F771FE7F70180812A96BE014D2D40
:103BD00026E00E944710F70180812496BE014D2DFA
:103BE00029E0012F0E944710DF91CF911F910F9183
:103BF000FF90EF90DF900895BF92CF92DF92EF9207
:103C0000FF920F931F93CF93DF937C01EB01FC0195
:103C1000B1805DE0C52ED12CC60ED71E82818823CF
:103C200081F52881675E7F4F848187FD8F5F859551
:103C3000992787FD90950FE310E0081B190B0F776C
:103C40001070102F00270D67822F4B2D26E00E9449
:103C500029109881B6016A5F7F4FF701858187FD42
:103C60008F5F8595E82FFF27E7FDF095E05CFF4F1C
:103C7000EF77F070892F4B2D23E000E01E2F0E947C
:103C80002910DF91CF911F910F91FF90EF90DF905E
:103C9000CF90BF9008950F931F93890120E00E9459
:103CA00029101F910F910895DF93CF9300D000D07A
:103CB00000D0CDB7DEB76B838C834D835E83982FA6
:103CC000960F940F950F892F805187FD02C0606475
:103CD0006B83919591579F779A8381EF8983CE016A
:103CE000019666E070E00E941B1126960FB6F894CC
:103CF000DEBF0FBECDBFCF91DF910895482F46950F
:103D000080E060E050E0D0CFDF93CF9300D00F92FF
:103D1000CDB7DEB792EF99838B836295607F982F42
:103D200092959F702DE09227262F22952F70922733
:103D30008F709827962B9A83CE01019663E070E0EE
:103D40000E941B110F900F900F90CF91DF9108955B
:103D500061E0DACF63E0D8CF62E0D6CFDF93CF93D4
:103D600000D0CDB7DEB7E82F8150863010F080E06C
:103D70000EC083EF8983F0E0E257FD4F80818A8394
:103D8000CE01019662E070E00E941B1181E00F906D
:103D90000F90CF91DF91089584E690E00E94BC10CF
:103DA0008DEA92E062E070E00E941B1185E992E0EA
:103DB00068E170E00E941B1184E0D0DF84E690E0AF
:103DC0000C94BC10DF92EF92FF920F931F9300E0D0
:103DD000FF24EE24DD2412E08D3091F08E3038F493
:103DE000823098F0863010F1863079F407C08F3039
:103DF00059F08F3038F0803141F418C00F5F05C0A2
:103E0000F39403C0E39401C0D394812F0E940C105B
:103E10001F5F153109F7033048F482E08F1530F049
:103E20008E1520F080E092E09D1508F481E01F914E
:103E30000F91FF90EF90DF90089523B5216023BD8F
:103E4000909385008093840081E086BBB09BFECF79
:103E50000895FC0123818281282784812827858178
:103E60002827603121F48181908189272827822F9A
:103E700082958F708227982F969596959827292F4F
:103E8000269529276B3011F481812827822F817094
:103E900008955D9A81EC9FEFD0DF5D9883E89FEFF6
:103EA000CCCF1F938091B106843011F010E101C096
:103EB0001BE080E0612F0E940209E898882361F4EA
:103EC00080912B068F5F80932B068B30F8F0F8944F
:103ED00080E28093D800FFCF10922B068DE796E00A
:103EE000612FB7DF882391F08091B106843051F4BF
:103EF000AAEAB6E0EDE7F6E086E001900D92815087
:103F0000E1F704C08DE796E00E9448081F910895EC
:103F10001DB880E48EB910BA83EF81BB93E095BDE4
:103F200085E080938100909369008BEC93EF85DFAF
:103F3000B0DF8BEC93EF81DF80E06EE70E94020937
:103F4000A8DF8091840680918406813159F48DE741
:103F500096E060E17EDF882329F083E08093B1065C
:103F600080E00EC0809184068C3091F48DE796E05D
:103F70006BE06FDF882361F084E08093B10681E01D
:103F80000E94A10FE898F8948EE480932A06089581
:103F9000E898CECF9091BF0220E09823981709F4BB
:103FA00021E0822F0895282F8091BF0281FF14C045
:103FB00080912C0690912D068050924068F480915B
:103FC0002C0690912D06FC01EE54F94F20830196AA
:103FD00090932D0680932C0608951F93CF93DF9323
:103FE000EC018091BF02882361F0FE0121961491BB
:103FF000112339F01A3011F48DE0D5DF812FD3DF92
:10400000F4CFDF91CF911F9108959C018091BF0261
:10401000882331F0C901E1DF8DE0C5DF8AE0C3CF3D
:1040200008951F93CF93DF93EC018091BF02882303
:1040300051F01991112339F01A3011F48DE0B3DFEA
:10404000812FB1DFF6CFDF91CF911F9108959C01B1
:104050008091BF02882331F0C901E3DF8DE0A3DF47
:104060008AE0A1CF0895CF92DF92EF92FF920F9353
:104070001F93CF93DF939C016B018091BF02882334
:1040800001F1E090D102F090D2028901C0E0D0E0CD
:1040900015C080E288DFF801808182958F70F7017A
:1040A000E80FF11D80817FDFF80181918F018F7012
:1040B000F701E80FF11D808176DF2196CC15DD0533
:1040C00040F3DF91CF911F910F91FF90EF90DF9020
:1040D000CF9008959C018091BF02882329F0662328
:1040E00019F0C90170E0BFCF08959C018091BF0213
:1040F000882349F0662319F0C90170E0B4DF8DE030
:1041000052DF8AE050CF0895EF92FF920F931F93F2
:10411000DF93CF930F92CDB7DEB7FC0169838A019D
:1041200079018091BF02882351F0CF017ADFCE015F
:10413000019661E070E0CEDFC801B701D6DF0F90D5
:10414000CF91DF911F910F91FF90EF900895AF9263
:10415000BF92CF92DF92EF92FF920F931F93CF9374
:10416000DF93FC016B01F42EE52E89018091BF02E3
:10417000882369F1CF0131DF8F2D9E2DEC017E0167
:10418000E00EF11E31E0A32EB12C1AC088819501FA
:10419000281B3109C901880F991FF601E81BF90B8B
:1041A0001081CE0161E070E095DF123038F0612FB0
:1041B00070E061507040CE0101968CDFC10FD11DBF
:1041C000CE15DF0518F38DE0EEDE8AE0ECDEDF9140
:1041D000CF911F910F91FF90EF90DF90CF90BF9004
:1041E000AF90089560912C0670912D0661157105B0
:1041F000B9F010922D0610922C0683E08093E9000E
:1042000082EB96E040E050E01CD38091E8008E778E
:104210008093E8005CD08091E8008E778093E8007E
:104220000895382F282F2CC02093E900231721F45C
:10423000762F942F50E006C07091EC009091ED0025
:104240005091F00091FF1BC08091EB008E7F809316
:10425000EB008091ED008D7F8093ED008091EB006D
:1042600081608093EB007093EC009093ED0050938D
:10427000F0008091EE0087FD02C080E008952F5F7E
:10428000273090F23093E90081E008958091B708DB
:1042900088239CF404C08091B6088823B9F08091EB
:1042A000E80082FFF8CF8091E8008B778093E800E8
:1042B00008958091B608882349F08091E80080FF36
:1042C000F8CF8091E8008E778093E80008954091C0
:1042D000E4005091E50024E68091EC0080FF24C0CA
:1042E0008091E80080FD1EC08091B608882311F4FB
:1042F00082E00895853011F483E008958091EB0009
:1043000085FF02C081E008958091E4009091E5006E
:104310008417950709F3222311F484E008952150AE
:10432000AC01DACF80E008958091E80082FFDCCF15
:10433000F9CFEF92FF920F931F934AD051D008ED1F
:1043400010E0F80180818F7780838081806880838E
:1043500080818F7D808319BC1092B6081092B208BC
:104360001092B4081092B30880EEE82EF12CF701F9
:1043700080818B7F8083F80180818160808380E0F1
:1043800060E042E04EDFE1EEF0E080818E7F8083EE
:10439000E2EEF0E0808181608083808188608083AC
:1043A000F70180818E7F8083F80180818061808326
:1043B0001F910F91FF90EF900895E7EDF0E080815D
:1043C0008160808384E082BF81E08093B508B1CFB3
:1043D000E8EDF0E080818E7F80831092E200089506
:1043E0001092DA001092E10008951F920F920FB61A
:1043F0000F9211242F933F934F935F936F937F936B
:104400008F939F93AF93BF93EF93FF938091E100BE
:1044100082FF0AC08091E20082FF06C08091E10025
:104420008B7F8093E100CDD38091DA0080FF1FC0A5
:104430008091D80080FF1BC08091DA008E7F80932E
:10444000DA008091D90080FF0DC080E189BD82E152
:1044500089BD09B400FEFDCF81E08093B6080E94BB
:10446000400B05C019BC1092B6080E94420B809107
:10447000E10080FF18C08091E20080FF14C08091AD
:10448000E2008E7F8093E2008091E2008061809361
:10449000E2008091D80080628093D80019BC85E04A
:1044A0008093B6088ED38091E10084FF2DC0809167
:1044B000E20084FF29C080E189BD82E189BD09B4A1
:1044C00000FEFDCF8091D8008F7D8093D800809131
:1044D000E1008F7E8093E1008091E2008F7E8093E7
:1044E000E2008091E20081608093E2008091B20856
:1044F000882331F48091E30087FD02C081E001C090
:1045000084E08093B6085DD38091E10083FF22C0F0
:104510008091E20083FF1EC08091E100877F80933D
:10452000E10082E08093B6081092B2088091E10029
:104530008E7F8093E1008091E2008E7F8093E20085
:104540008091E20080618093E20080E060E042E0E0
:1045500068DE37D3FF91EF91BF91AF919F918F911B
:104560007F916F915F914F913F912F910F900FBE6F
:104570000F901F9018959C014091BD085091BE0866
:104580004617570718F4F90190E045C06115710509
:1045900011F0AB01F8CF8091E8008E778093E800AE
:1045A00040E050E0F0CF8091B608882309F445C080
:1045B000853009F444C08091E80083FF02C081E0A7
:1045C00008958091E80082FD32C08091E80080FF6C
:1045D00022C08091F3009091F200782F60E0292FA3
:1045E00030E0262B372B07C081918093F10041509A
:1045F00050402F5F3F4F4115510519F028303105CC
:1046000098F390E02830310509F491E08091E800BA
:104610008E778093E8004115510529F6992319F604
:1046200006C08091B608882341F0853041F0809122
:10463000E80082FFF6CF80E0089582E0089583E0ED
:1046400008959C016115710529F48091E8008B772C
:104650008093E800F90127C08091B608882399F17A
:10466000853099F18091E80083FF02C081E00895D0
:104670008091E80082FFF0CF06C08091F100819325
:104680006150704059F02091F3008091F200322F78
:1046900020E090E0822B932B892B79F78091E80022
:1046A0008B778093E80061157105B1F606C08091A3
:1046B000B608882341F0853041F08091E80080FF02
:1046C000F6CF80E0089582E0089583E008959C018C
:1046D0004091BD085091BE084617570718F4F901DC
:1046E00090E046C06115710511F0AB01F8CF8091E3
:1046F000E8008E778093E80040E050E0F0CF8091B2
:10470000B608882309F447C0853009F446C0809173
:10471000E80083FF02C081E008958091E80082FDF7
:1047200034C08091E80080FF23C08091F300909115
:10473000F200782F60E0292F30E0262B372B08C0BD
:1047400084918093F1003196415050402F5F3F4F4C
:104750004115510519F02830310590F390E02830CB
:10476000310509F491E08091E8008E778093E800AC
:104770004115510521F6992309F0C1CF06C080915A
:10478000B608882341F0853041F08091E80082FF2F
:10479000F6CF80E0089582E0089583E00895BF9207
:1047A000CF92DF92EF92FF920F931F93CF93DF93FD
:1047B000182F092F7B016A018ADDB82E8823B1F5F5
:1047C000812F902F9C01E901C114D10439F0F60129
:1047D00080819181E81AF90AC80FD91F00E010E022
:1047E00022C08091E80085FD16C08091E8008B779B
:1047F0008093E800E7D1C114D10449F0F60180812B
:104800009181800F911F9183808385E010C05FDDCF
:10481000882349F00CC08091F10089930894E10845
:10482000F1080F5F1F4FE114F104D9F68B2DDF91D2
:10483000CF911F910F91FF90EF90DF90CF90BF909D
:104840000895BF92CF92DF92EF92FF920F931F9342
:10485000CF93DF93182F092F7B016A0138DDB82E23
:104860008823B1F5812F902F9C01E901C114D10457
:1048700039F0F60180819181E81AF90AC80FD91F31
:1048800000E010E022C08091E80085FD16C0809114
:10489000E8008E778093E80095D1C114D10449F0E7
:1048A000F60180819181800F911F9183808385E043
:1048B00010C00DDD882349F00CC089918093F10070
:1048C0000894E108F1080F5F1F4FE114F104D9F6D5
:1048D0008B2DDF91CF911F910F91FF90EF90DF9083
:1048E000CF90BF9008950F931F93DF93CF93CDB7D1
:1048F000DEB7AC970FB6F894DEBF0FBECDBFE7EBC7
:10490000F8E08091F100819328E0EF3BF207C9F7CE
:104910000E94FE0D8091E80083FF3AC18091B708A4
:104920003091B808353009F487C0363040F4313062
:10493000C9F1313070F0333009F02AC133C038305A
:1049400009F4F7C0393009F406C1363009F020C146
:1049500097C0803821F0823809F01AC108C09091C0
:10496000B3088091B408882399F0926011C08091B7
:10497000BB088F708093E9008091EB0090E025E008
:10498000969587952A95E1F7982F91701092E900F6
:104990008091E800877F8093E8009093F100109267
:1049A000F100D2C0882319F0823009F0F1C090E004
:1049B0008F719070009721F0029709F0E9C00CC048
:1049C0008091B908813009F0E3C01092B408333007
:1049D00069F58093B4082AC08091B908882331F51D
:1049E0002091BB082F7009F4D3C02093E900809177
:1049F000EB0080FF1BC0333021F48091EB0080621C
:104A000013C08091EB0080618093EB0081E090E027
:104A100002C0880F991F2A95E2F78093EA0010924E
:104A2000EA008091EB0088608093EB001092E9002F
:104A30008091E800877F8BC0882309F0A9C010917E
:104A4000B9081F770FB7F8948091E800877F8093AB
:104A5000E8001CDC8091E80080FFFCCF8091E3003F
:104A60008078812B8093E30080688093E30011239A
:104A700011F482E001C083E08093B6080FBF88C0C4
:104A80008058823008F084C08091B9089091BA08AB
:104A900023E08C3D920709F033C083E08C838AE2E7
:104AA0008B837FB7F894DE0115966EE040E050E00E
:104AB00011E2E62FF0E010935700849140FF03C00D
:104AC00082958F706F5F8F70282F30E08A3018F0DA
:104AD000C901C79602C0C901C0968D939D934F5FCF
:104AE0005F4F4431510529F77FBF8091E800877FF0
:104AF0008093E800CE0103966AE270E03CDD13C0CB
:104B00006091BB08AE014F5F5F4F0E948B0ABC01F2
:104B1000009709F43DC08091E800877F8093E8000A
:104B200089819A81D4DD8091E8008B778093E800B9
:104B30002FC0803869F58091E800877F8093E80076
:104B40008091B2088093F1008091E8008E77809385
:104B5000E8009CDB1DC08823D9F49091B9089230FD
:104B6000B8F48091E800877F8093E8009093B208C2
:104B70008DDB8091B208882331F48091E30087FDBA
:104B800002C081E001C084E08093B6080E94130F48
:104B90008091E80083FF0AC08091EB0080628093DF
:104BA000EB008091E800877F8093E800AC960FB619
:104BB000F894DEBF0FBECDBFCF91DF911F910F9153
:104BC000089508951F938091B608882361F010918D
:104BD000E9001092E9008091E80083FF01C083DEC4
:104BE0001F701093E9001F910895AA1BBB1B51E190
:104BF00007C0AA1FBB1FA617B70710F0A61BB70B4D
:104C0000881F991F5A95A9F780959095BC01CD01F1
:104C1000089597FB092E07260AD077FD04D0E5DF1B
:104C200006D000201AF4709561957F4F0895F6F72D
:104C3000909581959F4F0895DC0101C06D9341507F
:0A4C40005040E0F70895F894FFCF0C
:104C4A00FF4765745265706F7274005365745265DC
:104C5A00706F727400000000000000085365742031
:104C6A00437573746F6D20466F72636500456E619C
:104C7A00626C65204163747561746F727300446974
:104C8A007361626C65204163747561746F7273003D
:104C9A0053746F7020416C6C20456666656374734B
:104CAA0000526573657400506175736500436F6ED9
:104CBA0074696E75650053657420446F776E6C6F06
:104CCA00616420466F7263652053616D706C650084
:104CDA0053657420437573746F6D20466F726365F4
:104CEA00204461746100557362203C3D006F1CCE04
:104CFA0015441CC415BF1C421C401C3E1CF31B66F9
:104D0A0016221CFE152E1B411A2519A518EE17CBC3
:104D1A0016CC1E141DAE1E0A1DE21EAC1EAA1EA82B
:104D2A001E541E4B1E7E1E361D1A1DFC1D1B1DC643
:104D3A001D1C1D1D1D0210000800090007000400AB
:104D4A0004000F0003000000040002000200020039
:104D5A0005000400F000010A01020306010504A58A
:104D6A001465B5647FA57E6BB5687FA53600B56C02
:104D7A007FA52800B5707FA5664CB5747FA57E0116
:104D8A00B5407FA57257B5447FA53C43B5487FA57A
:104D9A007E00B54C7FA50400B5507FA50200B5542E
:104DAA007FA50200B5587FA5007EB55C7FA53C00B3
:104DBA00B5607FF000010A0110056BF7C501120604
:104DCA000502080A0B0D0E0F1001F000010A152E3C
:104DDA003F6A1D4859F10E4301007DF17E04013EF0
:104DEA004EF11C45013E2FF10B46017D00F31D06D5
:104DFA0005030204050508090A0B00000102040262
:104E0A0030313233343536373839414243444546F6
:044E1A0000C00200D2
:00000001FF
